:100000000C9462000C948A000C948A000C948A0070
:100010000C948A000C948A000C948A000C948A0038
:100020000C948A000C948A000C948A000C948A0028
:100030000C948A000C948A000C948A000C948A0018
:100040000C94AB0A0C948A000C941B0B0C94F50ACC
:100050000C948A000C948A000C948A000C948A00F8
:100060000C9494070C948A000000000024002700E0
:100070002A0000000000250028002B0000000000DE
:1000800023002600290004040404040404040202DA
:100090000202020203030303030301020408102007
:1000A0004080010204081020010204081020000012
:1000B0000008000201000003040700000000000027
:1000C0000000161211241FBECFEFD8E0DEBFCDBF57
:1000D00013E0A0E0B1E0E4EFF9E202C005900D9278
:1000E000A237B107D9F725E0A2E7B3E001C01D921E
:1000F000A031B207E1F710E0C2E6D0E004C02197DA
:10010000FE010E949912C136D107C9F70E94F50E6F
:100110000C94F8140C940000FC0163830895FC0116
:10012000748B638B0895DC015396ED91FC91549789
:10013000309749F020E030E040E050E060E070E0CF
:1001400080E090E0099408950895FC0181899289E6
:100150000895FC01878590890895FC018585968521
:100160000895FC01838594850895FC01818592851D
:100170000895089508950F931F93CF93DF93EC0193
:100180008A01E881F981028CF38DE02D0995E881DF
:10019000F981068CF78DE02DB801CE01DF91CF916A
:1001A0001F910F910994FC01748763870895FC01E6
:1001B000728761876130710519F48CEF91E205C097
:1001C0006230710561F480EB9DE19687858780E35D
:1001D0009AE2908B87878AE090E0928B818B0895DA
:1001E000FC0180850895FC0160870895FC018781EA
:1001F0000895FC0167830895FC0186810895FC0140
:1002000066830895FC0185810895FC016583089546
:10021000FC0184810895FC0164830895089580E0C1
:100220000895EF92FF920F931F93CF93DF938C016A
:10023000EB010E94D700C130D10531F0229731F493
:1002400088E0E82EF12C02C0E12CF12CF801F58EAB
:10025000E48EDF91CF911F910F91FF90EF90089561
:100260009091BC0097FFFCCF8093BB0084E8809303
:10027000BC008091BC0087FFFCCF089584EA809386
:10028000BC008091BC0087FFFCCF08950895E091E9
:10029000C5038091C403E81730F4F0E0EA53FC4F43
:1002A000808190E008958FEF9FEF08959091C503AE
:1002B0008091C403981750F4E92FF0E0EA53FC4F03
:1002C000208130E09F5F9093C50302C02FEF3FEF86
:1002D000C90108951F93CF93DF938EEC94E00E94A1
:1002E0005601182F8EEC94E00E945601D12F20E089
:1002F000C22F9E01280F311DC901DF91CF911F919F
:1003000008958091C40390E02091C503821B910958
:10031000089585ED8093BC008091BC0084FDFCCFE6
:1003200010920C04089540919403262F30E0240F7E
:10033000311D21323105DCF420910C042430C9F444
:10034000FC0180E090E0861758F4309194032191ED
:10035000DC01AE58BC4FA30FB11D2C930196F3CF17
:1003600080919403680F6093940380E0089581E086
:10037000089582E00895CF92DF92EF92FF920F935B
:100380001F93CF93DF937C01262F972F8A018091B3
:100390000D04882391F0C62FD72F6E01C40ED51EF1
:1003A000CC15DD0571F06991D701ED91FC910190BB
:1003B000F081E02DC7010995F3CF642F822F0E94B1
:1003C0009301C801DF91CF911F910F91FF90EF90A2
:1003D000DF90CF900895CF93DF931F92CDB7DEB714
:1003E000698320910D042223D1F020913004203222
:1003F00040F021E030E0FC013383228380E090E094
:1004000015C080910E04E82FF0E0E15FFB4F998169
:1004100090838F5F80930E048093300405C061E069
:10042000CE0101960E94930181E090E00F90DF9150
:10043000CF910895CF93C62F672F8EEC94E00E9442
:10044000EB016C2F8EEC94E0CF910C94EB01CF93E9
:10045000DF9300D000D0CDB7DEB7DC01ED91FC9189
:1004600006A4F7A5E02DBE016F5F7F4F09958C8133
:10047000811103C08BE691E002C085E691E00E9405
:10048000BB0B8A81811103C08BE691E002C081E73A
:1004900091E00E94BB0B8B81811103C081E891E048
:1004A00002C087E791E00E94BB0B0E94AB0B0F904C
:1004B0000F900F900F90DF91CF910895CF93DF931E
:1004C000CDB7DEB727970FB6F894DEBF0FBECDBF0E
:1004D000DC01ED91FC9104A4F5A5E02DBE016F5F58
:1004E0007F4F09958C81811103C080E991E002C0A2
:1004F0008BE891E00E94BB0B8D81811103C08CE9D8
:1005000091E002C085E991E00E94BB0B8F818111CF
:1005100003C08BEA91E002C083EA91E00E94BB0B2A
:1005200083EB91E00E94BB0B6A8170E080E090E079
:100530004AE00E94C80B8CEB91E00E94BB0B6B81E0
:1005400070E080E090E04AE00E94C80B0E94AB0B94
:1005500027960FB6F894DEBF0FBECDBFDF91CF91C7
:100560000895CF92DF92EF92FF920F931F93CF9354
:10057000DF931F92CDB7DEB78C016B01DC01ED91EB
:10058000FC91048CF58DE02D498309957C01D801FF
:10059000ED91FC9100A0F1A1E02DC80109954981E0
:1005A000C114D104E1F14B30D0F1F6011082F1E039
:1005B000EF1AF10822E0E216F10488F545E0EAE0DE
:1005C000F0E010E24150242F30E0443011F0009769
:1005D00051F02C0D3D1DBF010E945C12805DD901C0
:1005E0008C93CB0104C0D601A20FB31F1C93411101
:1005F000E9CFF60184818583838184838EE28383BE
:1006000064EC71E0C60106960F90DF91CF911F91C7
:100610000F91FF90EF90DF90CF900C94F1140F901A
:10062000DF91CF911F910F91FF90EF90DF90CF90CE
:100630000895DC01FB01108211821282138214964C
:100640008C911497808317968C91179781831896B5
:100650008C911897828315968C918383089527E057
:10066000FB0111922A95E9F7FC018681FB01858344
:100670000895FF920F931F93CF93DF938C01F62E73
:10068000FC018381C62FD0E0882351F18EE30E94C4
:10069000BD0B89EC91E00E94BB0B88ED91E00E94BC
:1006A000BB0B8F2D90E0A0E0B0E040E1BC01CD019C
:1006B0000E94C80B8CED91E00E94BB0BFE013B96A3
:1006C000EE0FFF1FE00FF11F6081718180E090E06D
:1006D00040E10E94C80B89E20E94BD0B0E94AB0B57
:1006E00081E080930D0481E180932F0410920E0429
:1006F000109230046F2D8EEC94E00E94EB012B964B
:10070000CC0FDD1FC00FD11F68817981C8010E9405
:100710001A02DF91CF911F910F91FF900C94EF0C73
:100720001F93CF93DF93EC01162F8A8D9B8D9D7FB6
:1007300091609B8F8A8F62E0CE010E943903111174
:100740000CC08A8D9B8D9E7F9B8F8A8F62E0CE012D
:10075000DF91CF911F910C943903DF91CF911F91BD
:1007600008951F93CF93DF93EC01162F8A8D9B8DF5
:1007700093609B8F8A8F62E0CE010E943903111132
:100780000CC08A8D9B8D9E7F9B8F8A8F62E0CE01ED
:10079000DF91CF911F910C943903DF91CF911F917D
:1007A00008950F931F93CF93DF938C01EB01DC012E
:1007B00013968C918823B9F08EE30E94BD0B81EED5
:1007C00091E00E94BB0B88E20E94BD0BCE01A0E02D
:1007D000B0E04AE0BC01CD010E94C80B89E20E9452
:1007E000BD0B0E94AB0BD8015C96ED91FC915D971F
:1007F000EF70FF271D968D919C911E979E01C81743
:10080000D90708F49C01D8011F964D915C9150972F
:1008100070964217530708F49A01A901481B590B17
:10082000CA016AE070E00E945C12EB0186E0CC0F26
:10083000DD1F8A95E1F7CE2BDF2BD8015A968D91DB
:100840009C915B978960906C5B969C938E935A9772
:1008500062E0C8010E943903F801D58FC48F63E0BC
:10086000C8010E94390365E0C801DF91CF911F9153
:100870000F910C943903FC016087268D378D662318
:1008800011F0326002C03D7FFC01378F268F64E09B
:100890000C943903FC016783228D338D662311F09C
:1008A0003F7B02C03064FC01338F228F62E00C94E6
:1008B0003903FC016683828D938D9C013E7F338FCB
:1008C000228F662321F03062338F228F03C09E7DFA
:1008D000938F828F62E0CF010C943903FC01658312
:1008E000228D338D662311F0306101C03F7EFC0103
:1008F000338F228F62E00C943903FC0164836F70A4
:1009000020A131A1207F262B31A320A365E00C94E8
:100910003903EF92FF920F931F93CF93DF93EC0174
:100920008B81882359F08EE30E94BD0B8EEE91E0FF
:100930000E94BB0B8DEF91E00E94AF0B81E0809392
:100940000D0480E180932F0410920E041092300465
:100950008E01065E1F4F7E0184E2E80EF11CF80155
:10096000619171918F01CE010E941A020E151F052F
:10097000B1F7DF91CF911F910F91FF90EF900C9401
:10098000EF0CCF93DF93EC018B81882359F08EE33A
:100990000E94BD0B80E092E00E94BB0B8DEF91E0C6
:1009A0000E94AF0BE881F9810480F581E02D60E0C1
:1009B000CE0109951B8E1A8ECE01DF91CF910C943A
:1009C00089041F93CF93DF93FC0123893489232B60
:1009D00009F479C0EC0182E090E00E94360DCE016E
:1009E0000E946A019BA78AA70E94EF0C8AA59BA57B
:1009F00093FF0AC08B81882339F08EE30E94BD0BE0
:100A000085E092E00E94AF0B8AA59BA597FF5BC093
:100A100081E080930D0481E180932F0410920E04F5
:100A2000109230046CE08EEC94E00E94EB0180E0C8
:100A30000E94920C41E068E081E10E94F20C109269
:100A4000C5038093C403CE010E946A012EA53FA571
:100A50008217930721F09FA78EA711E001C010E035
:100A6000CE010E946A0128A939A98217930719F0BB
:100A700099AB88AB11E0CE010E946A012AA93BA97B
:100A80008217930719F09BAB8AAB11E0CE010E944D
:100A90006A012CA93DA98217930719F09DAB8CAB75
:100AA00011E00E94EF0C112371F02CA93DA94AA975
:100AB0005BA968A979A9EB89FC898EA59FA5DF911F
:100AC000CF911F910994DF91CF911F910895EF92DB
:100AD000FF920F931F93CF93DF938C018CE090E0F4
:100AE0000E94360DE801AA96780186E3E80EF11C13
:100AF000C8010E946A0189939993CE15DF05C1F759
:100B0000DF91CF911F910F91FF90EF900C94EF0C1C
:100B1000CF92DF92EF92FF920F931F93CF93DF93C9
:100B2000CDB7DEB72C970FB6F894DEBF0FBECDBFA2
:100B30008C010E946705D801ED91FC9106A8F7A9E8
:100B4000E02D4CE0BE016F5F7F4FC801099584E244
:100B500092E00E94BB0BCE0101960E94BB0BF801F4
:100B6000E6A4F7A48FE292E00E94BB0BB701C80194
:100B70000E944D0BD8019A968D919C919B9792FD66
:100B800003C08CE192E002C084E192E00E94BB0BC2
:100B9000F80182A593A597FD03C08BE891E002C000
:100BA00080E991E00E94BB0BD8019D968C91E82EC4
:100BB000E694E694F12C84E392E00E94BB0BBAE049
:100BC000EB16F1042CF460E281E394E00E94100A39
:100BD000C7010E94430D80E20E94BD0BC12CD12CA5
:100BE000EFE0EE1AF108CE14DF044CF46AE281E380
:100BF00094E00E94100AFFEFCF1ADF0AF4CF0E94A0
:100C0000AB0B8AE392E00E94AF0B780186E1E80E1D
:100C1000F11C6801A6E3CA0ED11CF7016191719124
:100C20007F01C8010E944D0BEC14FD04B1F70E9436
:100C3000AB0B81E080930D0481E180932F0410922F
:100C40000E041092300460E08EEC94E00E94EB0100
:100C500080E00E94920C41E060E281E10E94F20C8F
:100C60001092C5038093C40380E1E82EF12CC801E3
:100C70000E946A01BC01C8010E944D0BF1E0EF1A0D
:100C8000F108A9F70E94EF0C0E94AB0BD801ED917F
:100C9000FC910288F389E02DC8010995882321F091
:100CA00087E892E00E94BB0BD801ED91FC9102A471
:100CB000F3A5E02DC8010995882321F082E992E08F
:100CC0000E94BB0BD801ED91FC910680F781E02DCD
:100CD000C8010995182F88E992E00E94BB0B812F6B
:100CE00090E00E94430D80E20E94BD0B0E94AB0B7E
:100CF0002C960FB6F894DEBF0FBECDBFDF91CF911B
:100D00001F910F91FF90EF90DF90CF9008950F9378
:100D10001F93CF93DF938C01EB010E942F03C80137
:100D20000E94670521E02883F80182A593A592FD22
:100D30002E8397FF02C081E08B83F80185A58695FD
:100D40008695898384A595A590FF02C081E08C8358
:100D5000F801828D938D95FF02C081E08D83DF9134
:100D6000CF911F910F910895CF93DF93EC0182E013
:100D700090E00E94360DCE010E946A019BA78AA7CF
:100D80000E94EF0C2AA53BA533708AE0829FA00148
:100D9000839F500D11248D859E85840F951F9C8700
:100DA0008B87DF91CF9108951F93CF93DF93EC0151
:100DB0008B81882359F08EE30E94BD0B80EA92E07C
:100DC0000E94BB0B8DEF91E00E94AF0B1092C50308
:100DD0001092C40310920E041092300410920C046E
:100DE00011E010930B041092E60361E082E10E948F
:100DF0009A0D61E083E10E949A0D8091B9008E7F87
:100E00008093B9008091B9008D7F8093B90088E408
:100E10008093B80085E48093BC0010930D0481E1B9
:100E200080932F0410920E04109230040E94EF0C55
:100E3000811138C08B81882339F08EE30E94BD0B6D
:100E400085EA92E00E94AF0B84E098E59F8B8E8B41
:100E5000198E188E83E090E09B8F8A8FE881F9814C
:100E6000028CF38DE02D61E070E0CE01099580E009
:100E700098E09F8F8E8F81E890E999A388A31BA2A9
:100E80001AA21DA21CA21FA21EA219A618A6CE015C
:100E90000E94890481E090E09B8F8A8F62E0CE01FE
:100EA0000E94390381E0DF91CF911F910895CF9384
:100EB000C82F0E943E018CE70E9430018C2F0E94B7
:100EC00030010E943E018DE70E9430018091BC00FC
:100ED00087FFFCCF84E88093BC008091BC0087FF33
:100EE000FCCF8091BB0094E99093BC00CF91089512
:100EF0001F93CF93DF931F92CDB7DEB7182F69836F
:100F00000E943E018CE70E943001812F0E94300137
:100F10006981862F0E94300184E98093BC000F9084
:100F2000DF91CF911F9108951F920F920FB60F92EC
:100F300011242F933F934F935F936F937F938F93DE
:100F40009F93AF93BF93EF93FF938091B900887FF6
:100F5000803609F49CC068F5883209F45BC090F4CF
:100F6000803109F454C038F4882309F4F6C088307D
:100F700009F44DC0F6C0883109F44CC0803209F440
:100F80005DC0EFC0803409F468C048F4803309F4D0
:100F900055C0883309F0E5C080930A04D8C0803575
:100FA00009F44FC0883509F45DC0883409F0D9C010
:100FB000D6C0883909F4C7C0A8F4883709F467C0D7
:100FC00038F4883609F463C0803709F460C0C9C0BA
:100FD000883809F4B8C0803909F45FC0803809F056
:100FE000C0C05BC0803B09F486C038F4803A09F485
:100FF00066C0883A09F47FC0B4C0803C09F4A7C039
:10100000883C09F4A4C0883B09F48AC0AAC0809136
:10101000E70310C09091090480910804981770F5B7
:10102000E091090481E08E0F80930904F0E0E8511B
:10103000FC4F80818093BB0085EC86C080930A04BE
:101040008EC0E091090481E08E0F809309048091A5
:10105000BB00F0E0E851FC4F80839091090480913F
:1010600008046EC0E091090481E08E0F80930904AA
:101070008091BB00F0E0E851FC4F808380910B042D
:1010800081116DC081E08093E60384EA61C083E052
:1010900080930C041092B803CFCF8091B8038032B4
:1010A00008F051C0E091B80381E08E0F8093B8033F
:1010B0008091BB00F0E0E856FC4F8083BDCF85EC0B
:1010C0008093BC0010920C048091B803803230F4FD
:1010D000E091B803F0E0E856FC4F10826091B8034D
:1010E00070E0E0919603F091970388E993E0099509
:1010F0001092B80336C084E080930C0410929503DC
:1011000010929403E0919203F091930309958091DA
:101110009403811105C081E08093940310927203BF
:10112000E091950381E08E0F80939503F0E0EE58F7
:10113000FC4F80818093BB00909195038091940334
:10114000981708F479CF85E88093BC000AC085EC35
:101150008093BC0010920C0404C010920A040E94F8
:101160008901FF91EF91BF91AF919F918F917F91F5
:101170006F915F914F913F912F910F900FBE0F9004
:101180001F9018954F925F926F927F928F929F92CD
:10119000AF92BF92EF92FF920F931F93CF93DF9383
:1011A0007C014A015B01E9018E859F85892BB9F499
:1011B0008E899F891816190694F421E0E216F1042D
:1011C00071F4012B61F488819981AA81BB818851D6
:1011D0009C4FAF4FBF4F88839983AA83BB8388817D
:1011E0009981AA81BB81A5019401281B390B4A0B67
:1011F0005B0BCA01B9010E94CA1320E030E04AE744
:1012000054E40E9420132B013C0120E030E0A901AE
:101210000E947A1420E030E040E05FE387FD05C0E3
:10122000C301B2010E94AF1204C0C301B2010E9407
:10123000AE120E949213DB01109709F45DC041E0E9
:1012400050E02E853F8528303105C4F4E114F104C7
:1012500069F4EC85FD85CA01022E02C0880F991F32
:101260000A94E2F78E0F9F1F9D878C872F5F3F4F59
:101270003F872E8711971A161B061CF38E859F85B4
:101280000897B4F18E899F899C012F5F3F4F3F8B58
:101290002E8BFE01E80FF91F4C85408B2530310560
:1012A00054F082EB92E00E94BB0BCE0140960E946C
:1012B000AF0B81E022C01F861E861D861C861A1673
:1012C0001B06B4F428EE33E00E949212A5019401AB
:1012D000261B370B480B590B288339834A835B83C2
:1012E00001E010E09E01B501A401C7010E94C208FF
:1012F00088829982AA82BB8280E0DF91CF911F9180
:101300000F91FF90EF90BF90AF909F908F907F9044
:101310006F905F904F900895CF92DF92EF92FF927F
:101320000F931F93CF93DF936C017A018B01C0E081
:10133000D0E0CE15DF0589F0D8016D918D01D60181
:10134000ED91FC910190F081E02DC6010995892B6A
:1013500011F47E0102C02196ECCFC701DF91CF913D
:101360001F910F91FF90EF90DF90CF900895FC01B7
:10137000918D828D981761F0828DDF01A80FB11DCC
:101380005D968C91928D9F5F9F73928F90E00895F0
:101390008FEF9FEF0895FC01918D828D981731F0AA
:1013A000828DE80FF11D858D90E008958FEF9FEFFE
:1013B0000895FC01918D228D892F90E0805C9F4FD4
:1013C000821B91098F739927089581E394E00E940D
:1013D000D90921E0892B09F420E0822F0895FC012E
:1013E000848DDF01A80FB11DA35ABF4F2C91848DAE
:1013F00090E001968F739927848FA689B7892C93E3
:10140000A089B1898C9180648C93938D848D98137D
:1014100006C00288F389E02D80818F7D8083089546
:10142000EF92FF920F931F93CF93DF93EC0181E034
:10143000888F9B8D8C8D981305C0E889F9898081F0
:1014400085FD24C0F62E0B8D10E00F5F1F4F0F732C
:101450001127E02E8C8DE8120CC00FB607FCFACFD6
:10146000E889F989808185FFF5CFCE010E94EF09D7
:10147000F1CF8B8DFE01E80FF11DE35AFF4FF08293
:101480000B8FEA89FB898081806207C0EE89FF8922
:101490006083E889F98980818064808381E090E0BD
:1014A000DF91CF911F910F91FF90EF900895CF930F
:1014B000DF93EC01888D8823C9F0EA89FB8980815C
:1014C00085FD05C0A889B9898C9186FD0FC00FB62E
:1014D00007FCF5CF808185FFF2CFA889B9898C916F
:1014E00085FFEDCFCE010E94EF09E7CFDF91CF91CD
:1014F000089580E090E0892B29F00E94E509811190
:101500000C940000089508950E94EC143FB7F894DD
:101510008091C0039091C103A091C203B091C30315
:1015200026B5A89B05C02F3F19F00196A11DB11D3E
:101530003FBFBA2FA92F982F8827820F911DA11D79
:10154000B11DBC01CD0142E0660F771F881F991FB6
:101550004A95D1F708951F920F920FB60F9211245A
:101560002F933F938F939F93AF93BF938091BC032F
:101570009091BD03A091BE03B091BF033091BB0316
:1015800023E0230F2D3720F40196A11DB11D05C0C6
:1015900026E8230F0296A11DB11D2093BB03809363
:1015A000BC039093BD03A093BE03B093BF0380918F
:1015B000C0039091C103A091C203B091C3030196EF
:1015C000A11DB11D8093C0039093C103A093C203DA
:1015D000B093C303BF91AF919F918F913F912F9192
:1015E0000F900FBE0F901F9018951F920F920FB67D
:1015F0000F9211242F933F934F935F936F937F9399
:101600008F939F93AF93BF93EF93FF9381E394E006
:101610000E94EF09FF91EF91BF91AF919F918F9140
:101620007F916F915F914F913F912F910F900FBEDE
:101630000F901F9018951F920F920FB60F921124C2
:101640002F938F939F93EF93FF93E0914104F09139
:1016500042048081E0914704F091480482FD12C069
:10166000908180914A048F5F8F7320914B04821781
:1016700051F0E0914A04F0E0EF5CFB4F958F8093CE
:101680004A0401C08081FF91EF919F918F912F912A
:101690000F900FBE0F901F901895CF93DF93EB0123
:1016A0006031710520F480E30E94BD0B04C06F3FE0
:1016B000710509F020F480E30E94BD0B03C06115A1
:1016C000704118F480E30E94BD0BBE0180E090E001
:1016D00040E10E94C80B80E2DF91CF910C94BD0BDA
:1016E000833081F028F4813099F08230A1F00895A0
:1016F0008730A9F08830B9F08430D1F4809180002F
:101700008F7D03C0809180008F7780938000089543
:1017100084B58F7702C084B58F7D84BD0895809194
:10172000B0008F7703C08091B0008F7D8093B000B0
:101730000895009769F0FC0101900020E9F73197C6
:10174000AF01481B590BBC0181E394E00C948C0958
:1017500080E090E008958FEE92E00C94990BCF9387
:10176000DF930E94990BEC010E94AB0B8C0F9D1F25
:10177000DF91CF9108950C94990BE0913104F09191
:1017800032040190F081E02D682F81E394E0099408
:101790008F929F92AF92BF920F931F93CF93DF933D
:1017A000CDB7DEB7A1970FB6F894DEBF0FBECDBFA1
:1017B00019A2423008F44AE08E010F5D1F4F842EBB
:1017C000912CA12CB12CA50194010E947012E62F3E
:1017D000B901CA0101501109EA3014F4E05D01C0F9
:1017E000E95CD801EC93232B242B252B61F7C8014E
:1017F0000E94990BA1960FB6F894DEBF0FBECDBF25
:10180000DF91CF911F910F91BF90AF909F908F90DC
:1018100008958F929F92AF92BF92CF92DF92EF92F4
:10182000FF920F931F93CF93DF936B017C01142FD3
:1018300020E030E0A9010E941B1387FF09C08DE260
:101840000E94BD0BEC01F7FAF094F7F8F09402C097
:10185000C0E0D0E000E060E070E080E09FE30117CE
:1018600041F020E030E040E251E40E9420130F5F9D
:10187000F6CF9B01AC01C701B6010E94AF126B010C
:101880007C010E9499134B015C010E94C8139B01CB
:10189000AC01C701B6010E94AE126B017C014AE0A7
:1018A000C501B4010E94C80BC80FD91F112331F024
:1018B00082E192E00E94990BC80FD91F112321F1F8
:1018C00020E030E040E251E4C701B6010E947F14FD
:1018D0004B015C010E9499136B01E12CF12C4AE051
:1018E000C701B6010E94C80BC80FD91FC701B601B6
:1018F0000E94C8139B01AC01C501B4010E94AE1245
:101900006B017C011150DACFCE01DF91CF911F9195
:101910000F91FF90EF90DF90CF90BF90AF909F908E
:101920008F900895382F2091300490912F04213208
:1019300008F049C080910C048111FCCF42E0409333
:101940000C0430930B043FEF30930A041092090407
:1019500020930804AFE0B4E048EE53E0FA013E2FD4
:10196000341B321718F43D913193F9CF1092E703ED
:101970002091E703990F922B9093E7039091E60350
:10198000913061F41092E6039091E7039093BB00CD
:101990009091BC0093FDF8CF95EC01C095EE90932B
:1019A000BC0090910C049230E1F390910A049F3FA7
:1019B00079F080910A04803241F080910A048033EA
:1019C00031F084E005C081E003C082E001C083E023
:1019D00010920E041092300410920D04089581E0CC
:1019E0000C94920C90910C049111FCCF91E0909387
:1019F0000C0440930B042FEF20930A041092090467
:101A0000260F209308049093E7039091E703880F33
:101A1000892B8093E7038091E603813061F4109273
:101A2000E6038091E7038093BB008091BC0083FDB7
:101A3000F8CF85EC01C085EE8093BC0080910C044A
:101A40008130E1F380910904861710F46091090454
:101A5000A8EEB3E026EC33E0F9018E2F821B861747
:101A600018F48D918193F9CF862F0895813208F073
:101A700080E241E0682F80E10E94F20C1092C503E1
:101A80008093C4030895CF92DF92EF92FF92CF9399
:101A9000DF936C01990FEE08FF08F7FE17C08DE287
:101AA0000E94BD0BEC0166277727CB016C197D09DD
:101AB0008E099F094AE00E94C80B8C0F9D1FDF9181
:101AC000CF91FF90EF90DF90CF9008954AE0C7014B
:101AD000B601DF91CF91FF90EF90DF90CF900C9403
:101AE000C80BCF93DF93282F30E0F901E255FF4F69
:101AF0008491F901E656FF4FD491F901EA57FF4F5F
:101B0000C491CC2391F081110E94700BEC2FF0E076
:101B1000EE0FFF1FE458FF4FA591B491EC91ED2318
:101B200081E090E021F480E002C080E090E0DF916D
:101B3000CF9108951F93CF93DF93282F30E0F901C1
:101B4000E255FF4F8491F901E656FF4FD491F90118
:101B5000EA57FF4FC491CC23C9F0162F81110E9480
:101B6000700BEC2FF0E0EE0FFF1FEE58FF4FA5912A
:101B7000B4918FB7F894111105C09C91ED2FE095A9
:101B8000E92302C0EC91ED2BEC938FBFDF91CF9155
:101B90001F910895CF92DF92EF92FF920F931F93C0
:101BA000CF93DF936B017C018AE493E00E94AF0B3B
:101BB00081E08093B90083E08093B80061E082E126
:101BC0000E949A0D61E083E10E949A0D8091B90014
:101BD0008E7F8093B9008091B9008D7F8093B9008A
:101BE00088E48093B80089E593E00E94AF0B82E01F
:101BF0000E945707C82F81E00E945707D82F20E086
:101C000030E040EA51E4C701B6010E947F140E940F
:101C100099138B011F7061707727672B19F06C2F58
:101C2000606802C06C2F6F77D87F912F9695D92B63
:101C300082E00E9478076D2F81E00E947807B8014A
:101C40007695679580E00E94780786E693E00E948B
:101C5000AF0B81E00E945707082F83E10E945707CE
:101C6000182F82E00E945707C82F602F6F7381E002
:101C70000E947807612F606883E10E9478076C2FCB
:101C80006F7B82E00E94780788E693E00E94AF0BAA
:101C900081E00E945707682F686381E00E947807FF
:101CA0008AE693E00E94AF0B82E00E945707682FFC
:101CB000616082E00E9478078CE693E00E94AF0B9F
:101CC00087E10E945707682F606287E10E947807CA
:101CD0008EE693E00E94AF0B84E00E94570764E316
:101CE00084E00E94780780E793E0DF91CF911F9115
:101CF0000F91FF90EF90DF90CF900C94AF0BCF93AC
:101D0000DF9390E0FC01E656FF4F2491FC01EA5777
:101D1000FF4F8491882361F190E0880F991FFC01A7
:101D2000E859FF4FC591D491FC01EE58FF4FA591A2
:101D3000B491611109C09FB7F894888120958223DE
:101D40008883EC912E230BC0623061F49FB7F89426
:101D50003881822F809583238883EC912E2B2C93BE
:101D60009FBF06C08FB7F894E8812E2B28838FBFC2
:101D7000DF91CF9108958F929F92AF92BF92CF92B1
:101D8000DF92EF92FF926B017C010E94860A4B0169
:101D90005C01C114D104E104F104F1F00E94860A4F
:101DA000DC01CB0188199909AA09BB09883E934037
:101DB000A105B10570F321E0C21AD108E108F108CC
:101DC00088EE880E83E0981EA11CB11CC114D104BA
:101DD000E104F10419F7DDCFFF90EF90DF90CF9091
:101DE000BF90AF909F908F900895CF93DF93CDB722
:101DF000DEB7A8970FB6F894DEBF0FBECDBF7894BC
:101E000084B5826084BD84B5816084BD85B58260FF
:101E100085BD85B5816085BD80916E0081608093B0
:101E20006E00109281008091810082608093810019
:101E30008091810081608093810080918000816029
:101E4000809380008091B10084608093B100809184
:101E5000B00081608093B00080917A0084608093AC
:101E60007A0080917A00826080937A0080917A0073
:101E7000816080937A0080917A00806880937A00F4
:101E80001092C100E0914104F091420482E080830D
:101E9000E0913D04F0913E041082E0913F04F09106
:101EA000400480E1808310924904E0914504F09160
:101EB000460486E08083E0914304F09144048081ED
:101EC00080618083E0914304F091440480818860C4
:101ED0008083E0914304F091440480818068808392
:101EE000E0914304F091440480818F7D808384ECF1
:101EF00092E00E94BB0B61E087E00E947F0E61E0F0
:101F000087E00E949A0D62E082E00E947F0E62E00C
:101F100083E00E947F0E82E00E94710D01E010E0DC
:101F2000892B11F000E010E083E00E94710D892BF5
:101F300019F080E090E002C082E090E0800F911FF5
:101F40009093BA038093B90321E0892B09F020E034
:101F5000209300018CED92E00E94BB0B8091B903AD
:101F60009091BA030E94430D84EE92E00E94BB0B55
:101F70008091000190E00E94430D0E94AB0B809184
:101F80000001882309F461C062E084E00E947F0EB2
:101F900062E085E00E947F0E8AED94E00E94D40604
:101FA0006AE070E080E090E00E94BB0E4CEA56E2EE
:101FB00061E070E08AED94E00E94BB006AE070E0AE
:101FC00080E090E00E94BB0E60E08AED94E00E9409
:101FD00059046AE070E080E090E00E94BB0E60E08F
:101FE0008AED94E00E944A046AE070E080E090E0AC
:101FF0000E94BB0E6FE08AED94E00E947D046AE0CF
:1020000070E080E090E00E94BB0E82EF92E00E94C0
:10201000AF0B8AED94E00E94B406BC0180E090E032
:102020004AE00E94C80B0E94AB0B60E070E08CECB1
:1020300092E40E94CA0D86E093E00E94AF0B42E05A
:1020400060E070E08CEC92E460C061E084E00E94AB
:102050007F0E60E084E00E949A0D8AED94E00E9479
:10206000D4066AE070E080E090E00E94BB0E48ED8C
:1020700057E261E070E08AED94E00E94BB006AE004
:1020800070E080E090E00E94BB0E60E08AED94E09A
:102090000E9459046AE070E080E090E00E94BB0E6C
:1020A00060E08AED94E00E944A046AE070E080E01B
:1020B00090E00E94BB0E6FE08AED94E00E947D04E8
:1020C0006AE070E080E090E00E94BB0E82EF92E058
:1020D0000E94AF0B8AED94E00E94B406BC0180E040
:1020E00090E04AE00E94C80B0E94AB0B60E070E0F9
:1020F00086EC92E40E94CA0D84E093E00E94AF0B4C
:1021000042E060E070E086EC92E40E94090C0E94DC
:10211000AB0B60E086E00E947F0E61E088E00E94E9
:102120007F0E1E0129E1220E311CAE014F5F5F4F71
:1021300058A34F8FAA24A39486E0D1011D928A95BB
:10214000E9F780910001882309F466C0A98EAA8E60
:1021500088E193E00E94AF0B60E088E00E949A0D56
:1021600061E070E080E090E00E94BB0E61E088E0FA
:102170000E949A0D61E070E080E090E00E94BB0E4A
:1021800060E088E00E949A0D61E070E080E090E0FD
:102190000E94BB0E61E088E00E949A0D6AE070E048
:1021A00080E090E00E94BB0E71016E01BFE1CB0E9A
:1021B000D11CEC14FD0409F436C1F701B1907F0184
:1021C000612C712C8B2C0B2C000C9908B401062C63
:1021D00002C0759567950A94E2F76170772788E0E9
:1021E0000E949A0D61E070E080E090E00E94BB0EDA
:1021F000FFEF6F1A7F0A28E06216710439F7B7FE05
:10220000D8CF60E088E00E949A0D61E070E080E045
:1022100090E00E94BB0ECDCF88E1AF8DB8A11D929A
:102220008A95E9F7F12C86E00E94710DBB24B394E6
:10223000892B09F4B12CBF14B1F30E94860A6B01FB
:102240007C018B2C912C89859A85892B09F06CC097
:102250008D819E81AF81B885892B8A2B8B2B21F4B0
:10226000CD82DE82EF82F8862D813E814F815885B6
:1022700029A33AA34BA35CA3D701C601821B930BEE
:10228000A40BB50B8DA39EA3AFA3B8A7BC01CD0132
:102290000E94CA1320E030E04AE754E40E94201371
:1022A0002B013C0120E030E0A9010E947A1420E0DB
:1022B00030E040E05FE387FD05C0C301B2010E944A
:1022C000AF1204C0C301B2010E94AE120E94921369
:1022D00091E08916910469F42DA13EA14FA158A562
:1022E000232B242B252BC1F4CD82DE82EF82F886AE
:1022F0001BC08114910481F46A3071056CF089A1CE
:102300009AA1ABA1BCA189839A83AB83BC83A1E0D2
:10231000B0E0BA87A98708C0EF8DF8A128E1119233
:102320002A95E9F7FB2C7FCF89859A85892BD1F3F4
:1023300089819A81AB81BC81A7019601281B390B49
:102340004A0B5B0BCA01B9010E94CA1320E030E0BE
:102350004AE754E40E9420132B013C0120E030E0C6
:10236000A9010E947A1420E030E040E05FE387FD9D
:1023700005C0C301B2010E94AF1204C0C301B20183
:102380000E94AE120E9492138B859C85892B99F432
:102390006A3071050CF241E050E05C874B878D811B
:1023A0009E81AF81B885805F984DAF4FBF4F8983C5
:1023B0009A83AB83BC8300E010E09E012F5F3F4F08
:1023C000B701A601C4010E94C208882309F4AACF5C
:1023D00087E293E00E94BB0BCE0141960E94AF0BB7
:1023E00086E0FE017196D10101900D928A95E1F788
:1023F000C1010E94AF0B898D8130A9F487E393E07E
:102400000E94AF0B8A8D813071F461E084E00E94FC
:102410009A0D6CE271E080E090E00E94BB0E60E0FB
:1024200084E00E949A0D0E94790A86CEE1E3F4E0EE
:102430001382128288EE93E0A0E0B0E0848395835B
:10244000A683B78325E031E03183208325EC30E09B
:102450003587248724EC30E03787268720EC30E06E
:10246000318B208B21EC30E0338B228B22EC30E05F
:10247000358B248B26EC30E0378B268B118E128E19
:10248000138E148EEEECF4E0138212828483958313
:10249000A683B78385E191E091838083EAEDF4E040
:1024A00085E1DF011D928A95E9F785E291E091834C
:1024B00080838FE0858B0895AA1BBB1B51E107C069
:1024C000AA1FBB1FA617B70710F0A61BB70B881FC4
:1024D000991F5A95A9F780959095BC01CD01089553
:1024E000A1E21A2EAA1BBB1BFD010DC0AA1FBB1F18
:1024F000EE1FFF1FA217B307E407F50720F0A21B8A
:10250000B30BE40BF50B661F771F881F991F1A94F6
:1025100069F760957095809590959B01AC01BD0120
:10252000CF0108950E949F12B7FF0895821B930B5D
:102530000895EE0FFF1F0590F491E02D0994A29FDE
:10254000B001B39FC001A39F700D811D1124911D87
:10255000B29F700D811D1124911D08955058BB2705
:10256000AA270E94C6120C9440140E94321438F01C
:102570000E94391420F039F49F3F19F426F40C948A
:102580002F140EF4E095E7FB0C942914E92F0E9418
:10259000511458F3BA17620773078407950720F0A0
:1025A00079F4A6F50C9473140EF4E0950B2EBA2F63
:1025B000A02D0B01B90190010C01CA01A001112449
:1025C000FF27591B99F0593F50F4503E68F11A16F5
:1025D000F040A22F232F342F4427585FF3CF469586
:1025E00037952795A795F0405395C9F77EF41F16A8
:1025F000BA0B620B730B840BBAF09150A1F0FF0F72
:10260000BB1F661F771F881FC2F70EC0BA0F621F5D
:10261000731F841F48F4879577956795B795F7954D
:102620009E3F08F0B0CF9395880F08F09927EE0FE2
:102630009795879508950E94051408F481E0089500
:102640000E9434130C9440140E94391458F00E94D4
:10265000321440F029F45F3F29F00C9429145111F1
:102660000C9474140C942F140E94511468F3992341
:10267000B1F3552391F3951B550BBB27AA2762177E
:102680007307840738F09F5F5F4F220F331F441F8B
:10269000AA1FA9F335D00E2E3AF0E0E832D09150BF
:1026A0005040E695001CCAF72BD0FE2F29D0660FAC
:1026B000771F881FBB1F261737074807AB07B0E8EF
:1026C00009F0BB0B802DBF01FF2793585F4F3AF0F5
:1026D0009E3F510578F00C9429140C9474145F3FBC
:1026E000E4F3983ED4F3869577956795B795F7957B
:1026F0009F5FC9F7880F911D9695879597F9089563
:10270000E1E0660F771F881FBB1F621773078407FE
:10271000BA0720F0621B730B840BBA0BEE1F88F70D
:10272000E09508950E9499136894B1110C94741463
:1027300008950E94591488F09F5798F0B92F99274F
:10274000B751B0F0E1F0660F771F881F991F1AF09C
:10275000BA95C9F714C0B13091F00E947314B1E07A
:1027600008950C947314672F782F8827B85F39F079
:10277000B93FCCF3869577956795B395D9F73EF435
:1027800090958095709561957F4F8F4F9F4F0895DD
:10279000E89409C097FB3EF49095809570956195FB
:1027A0007F4F8F4F9F4F9923A9F0F92F96E9BB27B1
:1027B0009395F695879577956795B795F111F8CF2D
:1027C000FAF4BB0F11F460FF1BC06F5F7F4F8F4F98
:1027D0009F4F16C0882311F096E911C0772321F08E
:1027E0009EE8872F762F05C0662371F096E8862F26
:1027F00070E060E02AF09A95660F771F881FDAF77D
:10280000880F9695879597F90895990F0008550FA9
:10281000AA0BE0E8FEEF16161706E807F907C0F066
:1028200012161306E407F50798F0621B730B840B6E
:10283000950B39F40A2661F0232B242B252B21F448
:1028400008950A2609F4A140A6958FEF811D811DE8
:10285000089597F99F6780E870E060E008959FEF22
:1028600080EC089500240A94161617061806090627
:10287000089500240A9412161306140605060895F6
:10288000092E0394000C11F4882352F0BB0F40F47E
:10289000BF2B11F460FF04C06F5F7F4F8F4F9F4FBE
:1028A000089557FD9058440F551F59F05F3F71F040
:1028B0004795880F97FB991F61F09F3F79F08795A7
:1028C0000895121613061406551FF2CF4695F1DF30
:1028D00008C0161617061806991FF1CF86957105C0
:1028E000610508940895E894BB2766277727CB01F4
:1028F00097F908950E94051408F48FEF08950E9437
:1029000092140C9440140E94321438F00E9439142E
:1029100020F0952311F00C9429140C942F141124F9
:102920000C9474140E94511470F3959FC1F3950F89
:1029300050E0551F629FF001729FBB27F00DB11D43
:10294000639FAA27F00DB11DAA1F649F6627B00DD3
:10295000A11D661F829F2227B00DA11D621F739FBC
:10296000B00DA11D621F839FA00D611D221F749FCA
:102970003327A00D611D231F849F600D211D822F11
:10298000762F6A2F11249F5750409AF0F1F0882338
:102990004AF0EE0FFF1FBB1F661F771F881F915065
:1029A0005040A9F79E3F510580F00C9429140C94D7
:1029B00074145F3FE4F3983ED4F38695779567955A
:1029C000B795F795E7959F5FC1F7FE2B880F911D8F
:1029D0009695879597F9089581E090E0F8940C9486
:1029E000F814FB01DC0101900D920020E1F708953D
:0429F000F894FFCF89
:1029F4000100000000100A8C09D909B709CB095756
:102A04000A00000000EB01BB0181015601470146A9
:102A14000100000000D406C1047D0408014A04F644
:102A2400003B04F0006E040201AD00A900A50011F2
:102A340001B500D103B406BB00B10390035904FCF3
:102A44000087061903E10493008F00B1028C005E35
:102A54000227028805204241535300202D2D2D2D9D
:102A640000204D5554450020534F46544D55544570
:102A740000202D2D2D2D2D2D2D2D002052445300C1
:102A8400202D2D2D002054554E454400202D2D2D54
:102A94002D2D002053544552454F0020204D4F4EBC
:102AA4004F20002020525353493A20002020534EF7
:102AB400523A2000204D487A002D5F7361766552AA
:102AC4006567697374657200283078002C2030784B
:102AD400007365744672657175656E6379002D7354
:102AE400617665526567697374657273002829009D
:102AF4007465726D00424C4F434B5F4520666F75A1
:102B04006E642E002053746572656F00204D6F6EE5
:102B14006F2020004672657175656E63793D0020F3
:102B240050493D00205369673D003020202020316A
:102B34002020202032202020203320202020342058
:102B4400202020352020202036202020203720203F
:102B5400202038202020203920202020412020201F
:102B640020422020202043202020204420202020F8
:102B74004520202020460042617373426F6F7374B6
:102B840020004D6F6E6F2000566F6C756D653D00B3
:102B9400696E697400726164696F20666F756E6432
:102BA4002E00537472696E67207265636569766579
:102BB400643A20005374617274696E672072696E9E
:102BC400675F6C6974655F76310D0A004D79204941
:102BD400443A20004973204D61737465723A200DA4
:102BE4000A00465820525820696E697469616C69FC
:102BF4007A6564000D0A465820545820696E697439
:102C040069616C697A65640073656E6420707265CD
:102C1400616D62756C6500646174612072656365E1
:102C2400697665643A20004E6577204D657373615B
:102C3400676520666F72206D6500535441525420BD
:102C4400494E49542069326300454E4420494E4957
:102C540054206932630031003200330034003500FF
:022C6400360038
:00000001FF
