:100000000C9462000C948A000C948A000C948A0070
:100010000C948A000C948A000C948A000C948A0038
:100020000C948A000C948A000C948A000C948A0028
:100030000C948A000C948A000C948A000C948A0018
:100040000C94DB0B0C948A000C944B0C0C94250C38
:100050000C948A000C948A000C948A000C948A00F8
:100060000C945D070C948A00000000002400270017
:100070002A0000000000250028002B0000000000DE
:1000800023002600290004040404040404040202DA
:100090000202020203030303030301020408102007
:1000A0004080010204081020010204081020000012
:1000B0000008000201000003040700000000000027
:1000C00000005F1211241FBECFEFD8E0DEBFCDBF0E
:1000D00013E0A0E0B1E0E6E8FAE202C005900D927C
:1000E000AC38B107D9F725E0ACE8B3E001C01D9208
:1000F000AA32B207E1F710E0C2E6D0E004C02197CF
:10010000FE010E94E212C136D107C9F70E945810C1
:100110000C9441150C940000FC0163830895FC01CC
:10012000748B638B0895DC015396ED91FC91549789
:10013000309749F020E030E040E050E060E070E0CF
:1001400080E090E0099408950895FC0181899289E6
:100150000895FC01878590890895FC018585968521
:100160000895FC01838594850895FC01818592851D
:100170000895089508950F931F93CF93DF93EC0193
:100180008A01E881F981028CF38DE02D0995E881DF
:10019000F981068CF78DE02DB801CE01DF91CF916A
:1001A0001F910F910994FC01748763870895FC01E6
:1001B000728761876130710519F48CEF91E205C097
:1001C0006230710561F480EB9DE19687858780E35D
:1001D0009AE2908B87878AE090E0928B818B0895DA
:1001E000FC0180850895FC0160870895FC018781EA
:1001F0000895FC0167830895FC0186810895FC0140
:1002000066830895FC0185810895FC016583089546
:10021000FC0184810895FC0164830895089580E0C1
:100220000895EF92FF920F931F93CF93DF938C016A
:10023000EB010E94D700C130D10531F0229731F493
:1002400088E0E82EF12C02C0E12CF12CF801F58EAB
:10025000E48EDF91CF911F910F91FF90EF90089561
:100260009091BC0097FFFCCF8093BB0084E8809303
:10027000BC008091BC0087FFFCCF089584EA809386
:10028000BC008091BC0087FFFCCF08950895E091E9
:10029000DF038091DE03E81730F4F0E0E052FC4F1A
:1002A000808190E008958FEF9FEF08959091DF0394
:1002B0008091DE03981750F4E92FF0E0E052FC4FF4
:1002C000208130E09F5F9093DF0302C02FEF3FEF6C
:1002D000C90108951F93CF93DF9388EE94E00E94A5
:1002E0005601182F88EE94E00E945601D12F20E08D
:1002F000C22F9E01280F311DC901DF91CF911F919F
:1003000008958091DE0390E02091DF03821B910924
:10031000089585ED8093BC008091BC0084FDFCCFE6
:100320001092260408954091AE03262F30E0240F4A
:10033000311D21323105DCF4209126042430C9F42A
:10034000FC0180E090E0861758F43091AE032191D3
:10035000DC01A457BC4FA30FB11D2C930196F3CF22
:100360008091AE03680F6093AE0380E0089581E052
:10037000089582E00895CF92DF92EF92FF920F935B
:100380001F93CF93DF937C01262F972F8A018091B3
:100390002704882391F0C62FD72F6E01C40ED51ED7
:1003A000CC15DD0571F06991D701ED91FC910190BB
:1003B000F081E02DC7010995F3CF642F822F0E94B1
:1003C0009301C801DF91CF911F910F91FF90EF90A2
:1003D000DF90CF900895CF93DF931F92CDB7DEB714
:1003E0006983209127042223D1F020914A042032EE
:1003F00040F021E030E0FC013383228380E090E094
:1004000015C080912804E82FF0E0E75DFB4F99814B
:1004100090838F5F8093280480934A0405C061E035
:10042000CE0101960E94930181E090E00F90DF9150
:10043000CF910895CF93C62F672F88EE94E00E9446
:10044000EB016C2F88EE94E0CF910C94EB01CF93ED
:10045000DF93CDB7DEB727970FB6F894DEBF0FBE98
:10046000CDBFDC01ED91FC9104A4F5A5E02DBE010A
:100470006F5F7F4F09958C81811103C08EE691E0FB
:1004800002C089E691E00E94C20C8D81811103C0F7
:100490008AE791E002C083E791E00E94C20C8F815D
:1004A000811103C089E891E002C081E891E00E94D7
:1004B000C20C81E991E00E94C20C6A8170E080E088
:1004C00090E04AE00E942B0E8AE991E00E94C20C63
:1004D0006B8170E080E090E04AE00E942B0E0E9469
:1004E000B20C27960FB6F894DEBF0FBECDBFDF91DA
:1004F000CF910895CF92DF92EF92FF920F931F93C7
:10050000CF93DF931F92CDB7DEB78C016B01DC0177
:10051000ED91FC91048CF58DE02D498309957C01CA
:10052000D801ED91FC9100A0F1A1E02DC801099541
:100530004981C114D104E1F14B30D0F1F6011082B0
:10054000F1E0EF1AF10822E0E216F10488F545E047
:10055000EAE0F0E010E24150242F30E0443011F0A6
:10056000009751F02C0D3D1DBF010E94A512805D2A
:10057000D9018C93CB0104C0D601A20FB31F1C93E9
:100580004111E9CFF60184818583838184838EE2E2
:10059000838362EA71E0C60106960F90DF91CF91E6
:1005A0001F910F91FF90EF90DF90CF900C943A1530
:1005B0000F90DF91CF911F910F91FF90EF90DF90FF
:1005C000CF900895DC01FB01108211821282138208
:1005D00014968C911497808317968C91179781832A
:1005E00018968C911897828315968C918383089521
:1005F00027E0FB0111922A95E9F7FC018681FB01B6
:1006000085830895FF920F931F93CF93DF938C01FF
:10061000F62EFC018381C62FD0E0882351F18EE3B2
:100620000E946C0E87EA91E00E94C20C86EB91E07A
:100630000E94C20C8F2D90E0A0E0B0E040E1BC0130
:10064000CD010E942B0E8AEB91E00E94C20CFE01AC
:100650003B96EE0FFF1FE00FF11F6081718180E07C
:1006600090E040E10E942B0E89E20E946C0E0E94F5
:10067000B20C81E08093270481E1809349041092B9
:10068000280410924A046F2D88EE94E00E94EB013A
:100690002B96CC0FDD1FC00FD11F68817981C80157
:1006A0000E941A02DF91CF911F910F91FF900C943D
:1006B000D60F1F93CF93DF93EC01162F8A8D9B8D5E
:1006C0009D7F91609B8F8A8F62E0CE010E94020322
:1006D00011110CC08A8D9B8D9E7F9B8F8A8F62E04B
:1006E000CE01DF91CF911F910C940203DF91CF9146
:1006F0001F9108951F93CF93DF93EC01162F8A8DDE
:100700009B8D93609B8F8A8F62E0CE010E940203D3
:1007100011110CC08A8D9B8D9E7F9B8F8A8F62E00A
:10072000CE01DF91CF911F910C940203DF91CF9105
:100730001F9108950F931F93CF93DF938C01EB01CB
:10074000DC0113968C918823B9F08EE30E946C0E25
:100750008FEB91E00E94C20C88E20E946C0ECE01E9
:10076000A0E0B0E04AE0BC01CD010E942B0E89E27E
:100770000E946C0E0E94B20CD8015C96ED91FC9127
:100780005D97EF70FF271D968D919C911E979E019E
:10079000C817D90708F49C01D8011F964D915C91A8
:1007A000509770964217530708F49A01A901481B05
:1007B000590BCA016AE070E00E94A512EB0186E0C5
:1007C000CC0FDD1F8A95E1F7CE2BDF2BD8015A968F
:1007D0008D919C915B978960906C5B969C938E93B6
:1007E0005A9762E0C8010E940203F801D58FC48FB6
:1007F00063E0C8010E94020365E0C801DF91CF9168
:100800001F910F910C940203FC016087268D378D98
:10081000662311F0326002C03D7FFC01378F268FC6
:1008200064E00C940203FC016783228D338D662300
:1008300011F03F7B02C03064FC01338F228F62E0F5
:100840000C940203FC016683828D938D9C013E7F94
:10085000338F228F662321F03062338F228F03C0C3
:100860009E7D938F828F62E0CF010C940203FC0186
:100870006583228D338D662311F0306101C03F7E88
:10088000FC01338F228F62E00C940203FC0164832D
:100890006F7020A131A1207F262B31A320A365E01A
:1008A0000C940203EF92FF920F931F93CF93DF9369
:1008B000EC018B81882359F08EE30E946C0E8CEC46
:1008C00091E00E94C20C8BED91E00E94B60C81E099
:1008D0008093270480E180934904109228041092A9
:1008E0004A048E01065E1F4F7E0184E2E80EF11C71
:1008F000F801619171918F01CE010E941A020E15CB
:100900001F05B1F7DF91CF911F910F91FF90EF90ED
:100910000C94D60FCF93DF93EC018B81882359F091
:100920008EE30E946C0E8EED91E00E94C20C8BED66
:1009300091E00E94B60CE881F9810480F581E02DF8
:1009400060E0CE0109951B8E1A8ECE01DF91CF910A
:100950000C9452041F93CF93DF93FC0123893489B5
:10096000232B09F479C0EC0182E090E00E941D1075
:10097000CE010E946A019BA78AA70E94D60F8AA572
:100980009BA593FF0AC08B81882339F08EE30E94D8
:100990006C0E83EE91E00E94B60C8AA59BA597FF92
:1009A0005BC081E08093270481E180934904109229
:1009B000280410924A046CE088EE94E00E94EB0157
:1009C00080E00E94790F41E068E081E10E94D90F48
:1009D0001092DF038093DE03CE010E946A012EA5F0
:1009E0003FA58217930721F09FA78EA711E001C0B2
:1009F00010E0CE010E946A0128A939A98217930745
:100A000019F099AB88AB11E0CE010E946A012AA9C6
:100A10003BA98217930719F09BAB8AAB11E0CE017B
:100A20000E946A012CA93DA98217930719F09DAB7A
:100A30008CAB11E00E94D60F112371F02CA93DA9B7
:100A40004AA95BA968A979A9EB89FC898EA59FA50C
:100A5000DF91CF911F910994DF91CF911F9108955C
:100A6000EF92FF920F931F93CF93DF938C018CE053
:100A700090E00E941D10E801AA96780186E3E80E36
:100A8000F11CC8010E946A0189939993CE15DF0574
:100A9000C1F7DF91CF911F910F91FF90EF900C94D0
:100AA000D60FCF92DF92EF92FF920F931F93CF93C7
:100AB000DF93CDB7DEB72C970FB6F894DEBF0FBE2D
:100AC000CDBF8C010E943005D801ED91FC9106A8A4
:100AD000F7A9E02D4CE0BE016F5F7F4FC80109957B
:100AE00082E092E00E94C20CCE0101960E94C20CEC
:100AF000F801E6A4F7A48DE092E00E94C20CB701D1
:100B0000C8010E947D0CD8019A968D919C919B976B
:100B100092FD03C08AEF91E002C082EF91E00E9453
:100B2000C20CF80182A593A597FD03C089E691E068
:100B300002C08EE691E00E94C20CD8019D968C9175
:100B4000E82EE694E694F12C82E192E00E94C20C39
:100B5000BAE0EB16F1042CF460E28BE494E00E941E
:100B6000760AC7010E942A1080E20E946C0EC12CF6
:100B7000D12CEFE0EE1AF108CE14DF044CF46AE257
:100B80008BE494E00E94760AFFEFCF1ADF0AF4CFDD
:100B90000E94B20C88E192E00E94B60C780186E1D6
:100BA000E80EF11C6801A6E3CA0ED11CF7016191A1
:100BB00071917F01C8010E947D0CEC14FD04B1F716
:100BC0000E94B20C81E08093270481E18093490464
:100BD0001092280410924A0460E088EE94E00E948B
:100BE000EB0180E00E94790F41E060E281E10E9428
:100BF000D90F1092DF038093DE0380E1E82EF12C01
:100C0000C8010E946A01BC01C8010E947D0CF1E08C
:100C1000EF1AF108A9F70E94D60F0E94B20CD80172
:100C2000ED91FC910288F389E02DC8010995882394
:100C300021F085E692E00E94C20CD801ED91FC9172
:100C400002A4F3A5E02DC8010995882321F080E7CF
:100C500092E00E94C20CD801ED91FC910680F781D0
:100C6000E02DC8010995182F86E792E00E94C20C7A
:100C7000812F90E00E942A1080E20E946C0E0E9458
:100C8000B20C2C960FB6F894DEBF0FBECDBFDF912D
:100C9000CF911F910F91FF90EF90DF90CF9008952B
:100CA0000F931F93CF93DF938C01EB010E94F80207
:100CB000C8010E94300521E02883F80182A593A590
:100CC00092FD2E8397FF02C081E08B83F80185A5FA
:100CD00086958695898384A595A590FF02C081E0BD
:100CE0008C83F801828D938D95FF02C081E08D8306
:100CF000DF91CF911F910F910895CF93DF93EC0176
:100D000082E090E00E941D10CE010E946A019BA724
:100D10008AA70E94D60F2AA53BA533708AE0829F3E
:100D2000A001839F500D11248D859E85840F951FF2
:100D30009C878B87DF91CF9108951F93CF93DF938B
:100D4000EC018B81882359F08EE30E946C0E8EE7B4
:100D500092E00E94C20C8BED91E00E94B60C1092C2
:100D6000DF031092DE031092280410924A041092BE
:100D7000260411E0109325041092000461E082E142
:100D80000E944C0B61E083E10E944C0B8091B90002
:100D90008E7F8093B9008091B9008D7F8093B900D8
:100DA00088E48093B80085E48093BC001093270406
:100DB00081E1809349041092280410924A040E9411
:100DC000D60F811138C08B81882339F08EE30E94C1
:100DD0006C0E83E892E00E94B60C84E098E59F8B4D
:100DE0008E8B198E188E83E090E09B8F8A8FE8811E
:100DF000F981028CF38DE02D61E070E0CE01099560
:100E000080E098E09F8F8E8F81E890E999A388A376
:100E10001BA21AA21DA21CA21FA21EA219A618A6DE
:100E2000CE010E94520481E090E09B8F8A8F62E0A5
:100E3000CE010E94020381E0DF91CF911F910895BE
:100E4000CF93C82F0E943E018CE70E9430018C2F67
:100E50000E9430010E943E018DE70E943001809186
:100E6000BC0087FFFCCF84E88093BC008091BC006D
:100E700087FFFCCF8091BB0094E99093BC00CF9199
:100E800008951F93CF93DF931F92CDB7DEB7182F2E
:100E900069830E943E018CE70E943001812F0E94ED
:100EA00030016981862F0E94300184E98093BC0063
:100EB0000F90DF91CF911F9108951F920F920FB65F
:100EC0000F9211242F933F934F935F936F937F93D0
:100ED0008F939F93AF93BF93EF93FF938091B9004C
:100EE000887F803609F49CC068F5883209F45BC0BD
:100EF00090F4803109F454C038F4882309F4F6C022
:100F0000883009F44DC0F6C0883109F44CC08032F5
:100F100009F45DC0EFC0803409F468C048F4803340
:100F200009F455C0883309F0E5C080932404D8C083
:100F3000803509F44FC0883509F45DC0883409F064
:100F4000D9C0D6C0883909F4C7C0A8F4883709F4D5
:100F500067C038F4883609F463C0803709F460C08C
:100F6000C9C0883809F4B8C0803909F45FC0803836
:100F700009F0C0C05BC0803B09F486C038F4803AF9
:100F800009F466C0883A09F47FC0B4C0803C09F413
:100F9000A7C0883C09F4A4C0883B09F48AC0AAC051
:100FA0008091010410C0909123048091220498172D
:100FB00070F5E091230481E08E0F80932304F0E02C
:100FC000EE5FFB4F80818093BB0085EC86C08093F1
:100FD00024048EC0E091230481E08E0F80932304CB
:100FE0008091BB00F0E0EE5FFB4F80839091230483
:100FF000809122046EC0E091230481E08E0F8093E3
:1010000023048091BB00F0E0EE5FFB4F8083809172
:10101000250481116DC081E08093000484EA61C0E1
:1010200083E0809326041092D203CFCF8091D20325
:10103000803208F051C0E091D20381E08E0F80939E
:10104000D2038091BB00F0E0EE54FC4F8083BDCF13
:1010500085EC8093BC00109226048091D2038032EC
:1010600030F4E091D203F0E0EE54FC4F1082609136
:10107000D20370E0E091B003F091B10382EB93E012
:1010800009951092D20336C084E080932604109212
:10109000AF031092AE03E091AC03F091AD0309955C
:1010A0008091AE03811105C081E08093AE03109260
:1010B0008C03E091AF0381E08E0F8093AF03F0E0EB
:1010C000E457FC4F80818093BB009091AF038091E7
:1010D000AE03981708F479CF85E88093BC000AC066
:1010E00085EC8093BC001092260404C01092240466
:1010F0000E948901FF91EF91BF91AF919F918F91D4
:101100007F916F915F914F913F912F910F900FBE03
:101110000F901F90189580E992E00E94B60C60E055
:1011200087E00E944C0B61E070E080E090E00E945C
:10113000A10B61E087E00E944C0B61E070E080E071
:1011400090E00E94A10B60E087E00E944C0B61E000
:1011500070E080E090E00E94A10B61E087E00E94D7
:101160004C0B6AE070E080E090E00C94A10B4F9291
:101170005F926F927F928F929F92AF92BF92EF9207
:10118000FF920F931F93CF93DF937C014A015B0182
:10119000E9018E859F85892BB9F48E899F89181660
:1011A000190694F421E0E216F10471F4012B61F4C4
:1011B00088819981AA81BB8188519C4FAF4FBF4FD5
:1011C00088839983AA83BB8388819981AA81BB8103
:1011D000A5019401281B390B4A0B5B0BCA01B9010D
:1011E0000E94131420E030E04AE754E40E9469139F
:1011F0002B013C0120E030E0A9010E94C31420E053
:1012000030E040E05FE387FD05C0C301B2010E940A
:10121000F81204C0C301B2010E94F7120E94DB134E
:10122000DB01109709F45DC041E050E02E853F8559
:1012300028303105C4F4E114F10469F4EC85FD852E
:10124000CA01022E02C0880F991F0A94E2F78E0F7E
:101250009F1F9D878C872F5F3F4F3F872E8711975A
:101260001A161B061CF38E859F850897B4F18E898C
:101270009F899C012F5F3F4F3F8B2E8BFE01E80F14
:10128000F91F4C85408B2530310554F08FE992E0F1
:101290000E94C20CCE0140960E94B60C81E022C092
:1012A0001F861E861D861C861A161B06B4F428EEA1
:1012B00033E00E94DB12A5019401261B370B480B7B
:1012C000590B288339834A835B8301E010E09E0138
:1012D000B501A401C7010E94B70888829982AA8239
:1012E000BB8280E0DF91CF911F910F91FF90EF9033
:1012F000BF90AF909F908F907F906F905F904F9036
:101300000895833081F028F4813099F08230A1F083
:1013100008958730A9F08830B9F08430D1F48091F5
:1013200080008F7D03C0809180008F778093800044
:10133000089584B58F7702C084B58F7D84BD0895EC
:101340008091B0008F7703C08091B0008F7D809333
:10135000B0000895CF93DF9390E0FC01E656FF4F75
:101360002491FC01EA57FF4F8491882361F190E0BA
:10137000880F991FFC01E859FF4FC591D491FC01DA
:10138000EE58FF4FA591B491611109C09FB7F89431
:101390008881209582238883EC912E230BC06230B4
:1013A00061F49FB7F8943881822F809583238883D6
:1013B000EC912E2B2C939FBF06C08FB7F894E88139
:1013C0002E2B28838FBFDF91CF9108952FB7F894EC
:1013D0006091D6037091D7038091D8039091D9037F
:1013E0002FBF0895CF92DF92EF92FF920F931F933A
:1013F000CF93DF936C017A018B01C0E0D0E0CE1572
:10140000DF0589F0D8016D918D01D601ED91FC9138
:101410000190F081E02DC6010995892B11F47E0120
:1014200002C02196ECCFC701DF91CF911F910F91A0
:10143000FF90EF90DF90CF900895FC01918D828D09
:10144000981761F0828DDF01A80FB11D5D968C9118
:10145000928D9F5F9F73928F90E008958FEF9FEF23
:101460000895FC01918D828D981731F0828DE80FDF
:10147000F11D858D90E008958FEF9FEF0895FC0199
:10148000918D228D892F90E0805C9F4F821B910966
:101490008F73992708958BE494E00E943F0A21E01E
:1014A000892B09F420E0822F0895FC01848DDF014F
:1014B000A80FB11DA35ABF4F2C91848D90E00196C7
:1014C0008F739927848FA689B7892C93A089B189B6
:1014D0008C9180648C93938D848D981306C00288C0
:1014E000F389E02D80818F7D80830895EF92FF92B4
:1014F0000F931F93CF93DF93EC0181E0888F9B8D37
:101500008C8D981305C0E889F989808185FD24C0F8
:10151000F62E0B8D10E00F5F1F4F0F731127E02E7B
:101520008C8DE8120CC00FB607FCFACFE889F98958
:10153000808185FFF5CFCE010E94550AF1CF8B8DBA
:10154000FE01E80FF11DE35AFF4FF0820B8FEA898D
:10155000FB898081806207C0EE89FF896083E8890A
:10156000F98980818064808381E090E0DF91CF9170
:101570001F910F91FF90EF900895CF93DF93EC01AF
:10158000888D8823C9F0EA89FB89808185FD05C0A3
:10159000A889B9898C9186FD0FC00FB607FCF5CFDD
:1015A000808185FFF2CFA889B9898C9185FFEDCF25
:1015B000CE010E94550AE7CFDF91CF91089580E0D8
:1015C00090E0892B29F00E944B0A81110C940000B5
:1015D00008950895CF93DF9300D000D0CDB7DEB744
:1015E000DC01ED91FC9106A4F7A5E02DBE016F5F33
:1015F0007F4F09958C81811103C087EB92E002C077
:1016000081EB92E00E94C20C8A81811103C087EBBA
:1016100092E002C08DEB92E00E94C20C8B8181119E
:1016200003C08DEC92E002C083EC92E00E94C20CF9
:101630000E94B20C0F900F900F900F90DF91CF91FE
:1016400008950E943515CF93DF93282F30E0F901DC
:10165000E255FF4F8491F901E656FF4FD491F9010D
:10166000EA57FF4FC491CC2391F081110E94810968
:10167000EC2FF0E0EE0FFF1FE458FF4FA591B4915F
:10168000EC91ED2381E090E021F480E002C080E065
:1016900090E0DF91CF9108951F93CF93DF93282F90
:1016A00030E0F901E255FF4F8491F901E656FF4F12
:1016B000D491F901EA57FF4FC491CC23C9F0162FFA
:1016C00081110E948109EC2FF0E0EE0FFF1FEE5810
:1016D000FF4FA591B4918FB7F894111105C09C915B
:1016E000ED2FE095E92302C0EC91ED2BEC938FBF39
:1016F000DF91CF911F9108953FB7F8948091DA035D
:101700009091DB03A091DC03B091DD0326B5A89B8B
:1017100005C02F3F19F00196A11DB11D3FBFBA2F83
:10172000A92F982F8827820F911DA11DB11DBC01E3
:10173000CD0142E0660F771F881F991F4A95D1F7A8
:1017400008958F929F92AF92BF92CF92DF92EF92C5
:10175000FF926B017C010E947C0B4B015C01C11468
:10176000D104E104F104F1F00E947C0BDC01CB0117
:1017700088199909AA09BB09883E9340A105B105BA
:1017800070F321E0C21AD108E108F10888EE880E52
:1017900083E0981EA11CB11CC114D104E104F10422
:1017A00019F7DDCFFF90EF90DF90CF90BF90AF9013
:1017B0009F908F9008951F920F920FB60F92112451
:1017C0002F933F938F939F93AF93BF938091D603B3
:1017D0009091D703A091D803B091D9033091D5034C
:1017E00023E0230F2D3720F40196A11DB11D05C064
:1017F00026E8230F0296A11DB11D2093D5038093E7
:10180000D6039093D703A093D803B093D9038091C4
:10181000DA039091DB03A091DC03B091DD03019624
:10182000A11DB11D8093DA039093DB03A093DC0329
:10183000B093DD03BF91AF919F918F913F912F9115
:101840000F900FBE0F901F9018951F920F920FB61A
:101850000F9211242F933F934F935F936F937F9336
:101860008F939F93AF93BF93EF93FF938BE494E099
:101870000E94550AFF91EF91BF91AF919F918F9177
:101880007F916F915F914F913F912F910F900FBE7C
:101890000F901F9018951F920F920FB60F92112460
:1018A0002F938F939F93EF93FF93E0915B04F091BD
:1018B0005C048081E0916104F091620482FD12C0B9
:1018C0009081809164048F5F8F73209165048217EB
:1018D00051F0E0916404F0E0E55BFB4F958F80935D
:1018E000640401C08081FF91EF919F918F912F91AE
:1018F0000F900FBE0F901F901895CF93DF93EB01C1
:101900006031710520F480E30E946C0E04C06F3FCB
:10191000710509F020F480E30E946C0E03C061158C
:10192000704118F480E30E946C0EBE0180E090E0EC
:1019300040E10E942B0E80E2DF91CF910C946C0E5F
:10194000009769F0FC0101900020E9F73197AF01A1
:10195000481B590BBC018BE494E00C94F20980E025
:1019600090E0089582E093E00C94A00CCF93DF9375
:101970000E94A00CEC010E94B20C8C0F9D1FDF9105
:10198000CF9108950C94A00C2F923F924F925F92AA
:101990006F927F928F929F92AF92BF92CF92DF927F
:1019A000EF92FF920F931F93CF93DF93CDB7DEB7E4
:1019B000A1970FB6F894DEBF0FBECDBF99A388A341
:1019C0009E012F5F3F4F3A8F298F88E1D9011D92E9
:1019D0008A95E9F71B8E86E00E94230B21E0892B74
:1019E00009F420E0BB8D2B17B1F32B8F0E947C0BE9
:1019F0006B017C01EB8D2E2E312C89859A85892BEC
:101A000009F063C08D819E81AF81B885892B8A2BB7
:101A10008B2B21F4CD82DE82EF82F8862D813E81F0
:101A20004F8158852C8F3D8F4E8F5F8F2601370158
:101A3000421A530A640A750AC301B2010E941314C0
:101A400020E030E04AE754E40E9469134B015C0156
:101A500020E030E0A9010E94C31420E030E040E023
:101A60005FE387FD05C0C501B4010E94F81204C000
:101A7000C501B4010E94F7120E94DB1331E0231666
:101A8000310449F4452846284728C1F4CD82DE8236
:101A9000EF82F8861AC02114310481F46A3071058E
:101AA0006CF08C8D9D8DAE8DBF8D89839A83AB83B9
:101AB000BC83A1E0B0E0BA87A98707C0E98DFA8DA1
:101AC00028E111922A95E9F786CF89859A85892B95
:101AD00009F481CF89819A81AB81BC81A7019601EC
:101AE000281B390B4A0B5B0BCA01B9010E94131466
:101AF00020E030E04AE754E40E9469134B015C01A6
:101B000020E030E0A9010E94C31420E030E040E072
:101B10005FE387FD05C0C501B4010E94F81204C04F
:101B2000C501B4010E94F7120E94DB138B859C85CE
:101B3000892B99F46A3071050CF241E050E05C8722
:101B40004B878D819E81AF81B885805F984DAF4F67
:101B5000BF4F89839A83AB83BC8300E010E09E0172
:101B60002F5F3F4FB701A601C1010E94B70888232C
:101B700009F431CF8BE793E00E94C20CCE0141966D
:101B80000E94B60C86E0FE017196A8A1B9A1019051
:101B90000D928A95E1F781E0A1960FB6F894DEBF29
:101BA0000FBECDBFDF91CF911F910F91FF90EF90AE
:101BB000DF90CF90BF90AF909F908F907F906F906D
:101BC0005F904F903F902F900895AF92BF92CF9229
:101BD000DF92FF920F931F93CF93DF93EC016C0181
:101BE00086E0C80ED11CCC15DD0559F1F99000E056
:101BF00010E0AF2C0F2C000CBB08B501002E02C06A
:101C0000759567950A94E2F76170772787E00E94DF
:101C10004C0B61E070E080E090E00E94A10B0F5F50
:101C20001F4F0830110549F7F7FEDDCF60E087E070
:101C30000E944C0B61E070E080E090E00E94A10BFC
:101C4000D2CFDF91CF911F910F91FF90DF90CF9076
:101C5000BF90AF9008958F929F92AF92BF920F93D3
:101C60001F93CF93DF93CDB7DEB7A1970FB6F8944C
:101C7000DEBF0FBECDBF19A2423008F44AE08E018C
:101C80000F5D1F4F842E912CA12CB12CA501940126
:101C90000E94B912E62FB901CA0101501109EA30B8
:101CA00014F4E05D01C0E95CD801EC93232B242BF4
:101CB000252B61F7C8010E94A00CA1960FB6F894DD
:101CC000DEBF0FBECDBFDF91CF911F910F91BF90AF
:101CD000AF909F908F900895E0914B04F0914C0449
:101CE0000190F081E02D682F8BE494E009948F92AD
:101CF0009F92AF92BF92CF92DF92EF92FF920F939B
:101D00001F93CF93DF936B017C01142F20E030E011
:101D1000A9010E94641387FF09C08DE20E946C0E26
:101D2000EC01F7FAF094F7F8F09402C0C0E0D0E0CC
:101D300000E060E070E080E09FE3011741F020E008
:101D400030E040E251E40E9469130F5FF6CF9B013F
:101D5000AC01C701B6010E94F8126B017C010E9420
:101D6000E2134B015C010E9411149B01AC01C701FD
:101D7000B6010E94F7126B017C014AE0C501B40173
:101D80000E942B0EC80FD91F112331F080EF91E074
:101D90000E94A00CC80FD91F112321F120E030E0D0
:101DA00040E251E4C701B6010E94C8144B015C0136
:101DB0000E94E2136B01E12CF12C4AE0C701B6014D
:101DC0000E942B0EC80FD91FC701B6010E94111423
:101DD0009B01AC01C501B4010E94F7126B017C01AB
:101DE0001150DACFCE01DF91CF911F910F91FF906B
:101DF000EF90DF90CF90BF90AF909F908F9008951D
:101E0000FF920F931F93CF93DF93EC0181E08093B8
:101E1000B90083E08093B80061E082E10E944C0B3E
:101E200061E083E10E944C0B8091B9008E7F80932A
:101E3000B9008091B9008D7F8093B90088E48093C8
:101E4000B80082E00E942007082F81E00E9420074E
:101E5000887F182F1360602F6F7782E00E94410700
:101E6000612F81E00E9441076CEF80E00E944107F2
:101E700081E00E942007F82E83E10E942007082FAE
:101E800082E00E942007182F6F2D6F7381E00E945F
:101E90004107602F606883E10E944107612F6F7BDB
:101EA00082E00E94410781E00E942007682F677C42
:101EB00081E00E94410782E00E942007682FD7FD41
:101EC00008C0C230D10524F025971CF4616001C020
:101ED0006E7F82E00E9441078EE10E942007682FFA
:101EE00060648EE1DF91CF911F910F91FF900C9470
:101EF0004107382F20914A0490914904213208F07B
:101F000049C0809126048111FCCF42E04093260411
:101F1000309325043FEF3093240410922304209340
:101F20002204A9E2B4E042E054E0FA013E2F341B5F
:101F3000321718F43D913193F9CF1092010420919A
:101F40000104990F922B9093010490910004913019
:101F500061F410920004909101049093BB00909161
:101F6000BC0093FDF8CF95EC01C095EE9093BC00BA
:101F7000909126049230E1F3909124049F3F79F0F0
:101F800080912404803241F080912404803331F028
:101F900084E005C081E003C082E001C083E01092CC
:101FA000280410924A0410922704089581E00C94AA
:101FB000790F909126049111FCCF91E09093260423
:101FC000409325042FEF2093240410922304260F1E
:101FD000209322049093010490910104880F892B8F
:101FE0008093010480910004813061F41092000418
:101FF000809101048093BB008091BC0083FDF8CFE9
:1020000085EC01C085EE8093BC0080912604813070
:10201000E1F380912304861710F460912304A2E079
:10202000B4E020EE33E0F9018E2F821B861718F4FE
:102030008D918193F9CF862F0895813208F080E247
:1020400041E0682F80E10E94D90F1092DF03809356
:10205000DE030895CF92DF92EF92FF92CF93DF934A
:102060006C01990FEE08FF08F7FE17C08DE20E9481
:102070006C0EEC0166277727CB016C197D098E0960
:102080009F094AE00E942B0E8C0F9D1FDF91CF917C
:10209000FF90EF90DF90CF9008954AE0C701B6011E
:1020A000DF91CF91FF90EF90DF90CF900C942B0EAB
:1020B000CF93DF93CDB7DEB72C970FB6F894DEBF82
:1020C0000FBECDBF789484B5826084BD84B5816035
:1020D00084BD85B5826085BD85B5816085BD8091F3
:1020E0006E00816080936E0010928100809181006B
:1020F0008260809381008091810081608093810063
:10210000809180008160809380008091B100846024
:102110008093B1008091B00081608093B000809185
:102120007A00846080937A0080917A008260809344
:102130007A0080917A00816080937A0080917A00A1
:10214000806880937A001092C100E0915B04F09166
:102150005C0482E08083E0915704F091580410827F
:10216000E0915904F0915A0480E180831092630455
:10217000E0915F04F091600486E08083E0915D046B
:10218000F0915E04808180618083E0915D04F09134
:102190005E04808188608083E0915D04F0915E043C
:1021A000808180688083E0915D04F0915E0480818D
:1021B0008F7D808387ED92E00E94C20C62E082E016
:1021C0000E94AA0962E083E00E94AA0982E00E94BC
:1021D000230B01E010E0892B11F000E010E083E018
:1021E0000E94230B892B19F080E090E002C082E06E
:1021F00090E0800F911F9093D4038093D30321E04C
:10220000892B09F020E0209300018FEE92E00E94DC
:10221000C20C8091D3039091D4030E942A1087EFBF
:1022200092E00E94C20C8091000190E00E942A106E
:102230000E94B20C809100018823E1F162E084E009
:102240000E94AA0962E085E00E94AA0984EF94E056
:102250000E949D064CEA56E261E070E084EF94E053
:102260000E94BB0061E084EF94E00E9422046AE0D7
:1022700084EF94E00E94460485E093E00E94B60C4F
:1022800084EF94E00E947D06BC0180E090E04AE08B
:102290000E942B0E0E94B20C80E090E00E94000F82
:1022A00089E193E00E94B60C42E060E070E08CECC3
:1022B00092E43BC061E084E00E94AA0960E084E00F
:1022C0000E944C0B84EF94E00E949D0648ED57E27B
:1022D00061E070E084EF94E00E94BB0061E084EF75
:1022E00094E00E9422046AE084EF94E00E94460495
:1022F00085E093E00E94B60C84EF94E00E947D0696
:10230000BC0180E090E04AE00E942B0E0E94B20CDB
:1023100082E090E00E94000F87E193E00E94B60CFB
:1023200042E060E070E086EC92E40E94770E0E944A
:10233000B20C60E086E00E94AA0961E087E00E949A
:10234000AA09C12CD12C76018E01095F1F4F86E0AE
:10235000982E92E0892ECE0101965C01F801292D7C
:1023600011922A95E9F7809100018823A1F084E079
:102370000E94230B892BD9F50E94E609DC01CB01D1
:102380008C199D09AE09BF0989389341A105B10592
:1023900008F057C02CC0C8010E94C40C8823F1F279
:1023A000C8010E94B60C8F818130C1F68BE293E0A8
:1023B0000E94B60C788421E07212D0CF61E084E0F4
:1023C0000E944C0B1F828091D303888779860E94DC
:1023D0008B08C8010E94E50D68EB7BE080E090E08F
:1023E0000E94A10B60E084E00E944C0BB7CF85E017
:1023F0000E94230B892B09F0B1CF0E94E609DC0172
:10240000CB018C199D09AE09BF0989389341A105FB
:10241000B10508F4A3CF8AE693E00E94C20C8F8234
:1024200081E088870E948B08C8010E94E50D0E9408
:10243000E6096B017C014AE00E942B0E0E94B20C5F
:102440008DCF89E593E00E94C20C81E08F8388875D
:102450000E948B08C8010E94E50D0E94E6096B01ED
:102460007C014AE00E942B0E0E94B20CF501292D3E
:1024700011922A95E9F7C5010E94C40C882309F43A
:102480006DCFC5010E94B60C898190E02091D303E5
:102490003091D4038217930709F060CF8BE293E069
:1024A0000E94B60C8A81813009F058CF8B8181302F
:1024B00009F054CF8EE393E00E94B60C4FCFEBE4CB
:1024C000F4E01382128288EE93E0A0E0B0E084830F
:1024D0009583A683B78329E031E03183208325ECFF
:1024E00030E03587248724EC30E03787268720ECDE
:1024F00030E0318B208B21EC30E0338B228B22ECCF
:1025000030E0358B248B26EC30E0378B268B118E18
:10251000128E138E148EE8EEF4E0138212828483FE
:102520009583A683B78389E191E091838083E4EF6B
:10253000F4E085E1DF011D928A95E9F789E291E0F7
:10254000918380838FE0858B0895AA1BBB1B51E18B
:1025500007C0AA1FBB1FA617B70710F0A61BB70B13
:10256000881F991F5A95A9F780959095BC01CD01B8
:102570000895A1E21A2EAA1BBB1BFD010DC0AA1FC4
:10258000BB1FEE1FFF1FA217B307E407F50720F0DC
:10259000A21BB30BE40BF50B661F771F881F991F57
:1025A0001A9469F760957095809590959B01AC01A0
:1025B000BD01CF0108950E94E812B7FF0895821B64
:1025C000930B0895EE0FFF1F0590F491E02D0994F1
:1025D000A29FB001B39FC001A39F700D811D112464
:1025E000911DB29F700D811D1124911D08955058A9
:1025F000BB27AA270E940F130C9489140E947B14F6
:1026000038F00E94821420F039F49F3F19F426F428
:102610000C9478140EF4E095E7FB0C947214E92FF7
:102620000E949A1458F3BA17620773078407950734
:1026300020F079F4A6F50C94BC140EF4E0950B2E62
:10264000BA2FA02D0B01B90190010C01CA01A00104
:102650001124FF27591B99F0593F50F4503E68F15F
:102660001A16F040A22F232F342F4427585FF3CFA0
:10267000469537952795A795F0405395C9F77EF471
:102680001F16BA0B620B730B840BBAF09150A1F0BA
:10269000FF0FBB1F661F771F881FC2F70EC0BA0F40
:1026A000621F731F841F48F4879577956795B795C8
:1026B000F7959E3F08F0B0CF9395880F08F09927C3
:1026C000EE0F9795879508950E944E1408F481E0C7
:1026D00008950E947D130C9489140E94821458F06E
:1026E0000E947B1440F029F45F3F29F00C9472148F
:1026F00051110C94BD140C9478140E949A1468F330
:102700009923B1F3552391F3951B550BBB27AA27AA
:1027100062177307840738F09F5F5F4F220F331FE4
:10272000441FAA1FA9F335D00E2E3AF0E0E832D0AC
:1027300091505040E695001CCAF72BD0FE2F29D0AF
:10274000660F771F881FBB1F261737074807AB0781
:10275000B0E809F0BB0B802DBF01FF2793585F4FF6
:102760003AF09E3F510578F00C9472140C94BD140D
:102770005F3FE4F3983ED4F3869577956795B795D8
:10278000F7959F5FC9F7880F911D9695879597F9E3
:102790000895E1E0660F771F881FBB1F621773075C
:1027A0008407BA0720F0621B730B840BBA0BEE1F71
:1027B00088F7E09508950E94E2136894B1110C9493
:1027C000BD1408950E94A21488F09F5798F0B92F65
:1027D0009927B751B0F0E1F0660F771F881F991F56
:1027E0001AF0BA95C9F714C0B13091F00E94BC1428
:1027F000B1E008950C94BC14672F782F8827B85F38
:1028000039F0B93FCCF3869577956795B395D9F7AD
:102810003EF490958095709561957F4F8F4F9F4FB7
:102820000895E89409C097FB3EF4909580957095C3
:1028300061957F4F8F4F9F4F9923A9F0F92F96E90C
:10284000BB279395F695879577956795B795F11181
:10285000F8CFFAF4BB0F11F460FF1BC06F5F7F4F1E
:102860008F4F9F4F16C0882311F096E911C0772330
:1028700021F09EE8872F762F05C0662371F096E839
:10288000862F70E060E02AF09A95660F771F881F08
:10289000DAF7880F9695879597F90895990F0008AC
:1028A000550FAA0BE0E8FEEF16161706E807F90722
:1028B000C0F012161306E407F50798F0621B730BBD
:1028C000840B950B39F40A2661F0232B242B252B3E
:1028D00021F408950A2609F4A140A6958FEF811DE1
:1028E000811D089597F99F6780E870E060E0089582
:1028F0009FEF80EC089500240A9416161706180618
:102900000906089500240A941216130614060506F3
:102910000895092E0394000C11F4882352F0BB0F84
:1029200040F4BF2B11F460FF04C06F5F7F4F8F4FE7
:102930009F4F089557FD9058440F551F59F05F3F22
:1029400071F04795880F97FB991F61F09F3F79F0D1
:1029500087950895121613061406551FF2CF469553
:10296000F1DF08C0161617061806991FF1CF8695D5
:102970007105610508940895E894BB2766277727B9
:10298000CB0197F908950E944E1408F48FEF089533
:102990000E94DB140C9489140E947B1438F00E946E
:1029A000821420F0952311F00C9472140C94781476
:1029B00011240C94BD140E949A1470F3959FC1F3D6
:1029C000950F50E0551F629FF001729FBB27F00DDD
:1029D000B11D639FAA27F00DB11DAA1F649F662732
:1029E000B00DA11D661F829F2227B00DA11D621F81
:1029F000739FB00DA11D621F839FA00D611D221F3B
:102A0000749F3327A00D611D231F849F600D211D1E
:102A1000822F762F6A2F11249F5750409AF0F1F0A1
:102A200088234AF0EE0FFF1FBB1F661F771F881F0A
:102A300091505040A9F79E3F510580F00C947214BC
:102A40000C94BD145F3FE4F3983ED4F386957795DC
:102A50006795B795F795E7959F5FC1F7FE2B880FB0
:102A6000911D9695879597F9089581E090E0F894E7
:102A70000C944115FB01DC0101900D920020E1F75F
:062A80000895F894FFCF59
:102A860001E803000000000000760AF2093F0A1D73
:102A96000A310ABD0A00000000EB01BB01810156A4
:102AA6000147014601000000009D068A044604080D
:102AB600011304F6000404F00037040201AD00A976
:102AC60000A5001101B5009A037D06BB007A0359E3
:102AD600032204FC005006E202AA0493008F007A47
:102AE600028C002702EA0A51052052445300202D89
:102AF6002D2D002054554E454400202D2D2D2D2DD5
:102B0600002053544552454F0020204D4F4E4F2034
:102B1600002020525353493A20002020534E523A67
:102B26002000204D487A002D5F73617665526567F7
:102B3600697374657200283078002C203078007331
:102B460065744672657175656E6379002D7361767D
:102B56006552656769737465727300282900746528
:102B6600726D00424C4F434B5F4520666F756E6435
:102B76002E002053746572656F00204D6F6E6F20B6
:102B860020004672657175656E63793D0020504977
:102B96003D00205369673D00302020202031202051
:102BA60020203220202020332020202034202020E6
:102BB60020352020202036202020203720202020CD
:102BC600382020202039202020204120202020428B
:102BD6002020202043202020204420202020452083
:102BE600202020460042617373426F6F7374200089
:102BF6004D6F6E6F2000566F6C756D653D00696E8A
:102C0600697400726164696F20666F756E642E0068
:102C160073656E6420707265616D62756C650053D4
:102C26007472696E672072656365697665643A20B9
:102C360000204241535300202D2D2D2D00204D55AF
:102C460054450020534F46544D55544500202D2DD4
:102C56002D2D2D2D2D2D005374617274696E6720F4
:102C660072696E675F6C6974655F76310D0A004D37
:102C7600792049443A20004973204D617374657286
:102C86003A200D0A00465820525820696E69746928
:102C9600616C697A6564000D0A46582054582069AB
:102CA6006E697469616C697A6564004E6577204D5A
:102CB60065737361676520666F72206D6500726962
:102CC6006E672061636365707465642C207374613C
:102CD600727420617564696F00494E5055543120F5
:102CE600707265737365640D0A00494E505554320F
:102CF60020707265737365640D0A006461746120E7
:0C2D060072656365697665643A20000020
:00000001FF
