:100000000C9462000C948A000C948A000C948A0070
:100010000C948A000C948A000C948A000C948A0038
:100020000C948A000C948A000C948A000C948A0028
:100030000C948A000C948A000C948A000C948A0018
:100040000C94A2050C948A000C9412060C94EC05F6
:100050000C948A000C948A000C948A000C948A00F8
:100060000C948A000C948A000000000024002700F1
:100070002A0000000000250028002B0000000000DE
:1000800023002600290004040404040404040202DA
:100090000202020203030303030301020408102007
:1000A0004080010204081020010204081020000012
:1000B0000008000201000003040700000000000027
:1000C0000000E70711241FBECFEFD8E0DEBFCDBF91
:1000D00011E0A0E0B1E0EAE4F4E102C005900D9285
:1000E000A03CB107D9F722E0A0ECB1E001C01D921D
:1000F000A836B207E1F710E0C2E6D0E004C02197CD
:10010000FE010E943D08C136D107C9F70E9444068E
:100110000C94230A0C940000833081F028F4813081
:1001200099F08230A1F008958730A9F08830B9F0B5
:100130008430D1F4809180008F7D03C08091800055
:100140008F7780938000089584B58F7702C084B53F
:100150008F7D84BD08958091B0008F7703C080911A
:10016000B0008F7D8093B0000895CF93DF93282F48
:1001700030E0F901E255FF4F8491F901E656FF4F57
:10018000D491F901EA57FF4FC491CC2391F081112A
:100190000E948C00EC2FF0E0EE0FFF1FE458FF4FA1
:1001A000A591B491EC91ED2381E090E021F480E001
:1001B00002C080E090E0DF91CF9108951F93CF932C
:1001C000DF93282F30E0F901E255FF4F8491F901C8
:1001D000E656FF4FD491F901EA57FF4FC491CC2363
:1001E000C9F0162F81110E948C00EC2FF0E0EE0F69
:1001F000FF1FEE58FF4FA591B4918FB7F8941111DE
:1002000005C09C91ED2FE095E92302C0EC91ED2B08
:10021000EC938FBFDF91CF911F910895CF93DF9320
:1002200090E0FC01E656FF4F2491FC01EA57FF4F96
:100230008491882361F190E0880F991FFC01E859AF
:10024000FF4FC591D491FC01EE58FF4FA591B49199
:10025000611109C09FB7F894888120958223888313
:10026000EC912E230BC0623061F49FB7F894388173
:10027000822F809583238883EC912E2B2C939FBF14
:1002800006C08FB7F894E8812E2B28838FBFDF91AB
:10029000CF9108953FB7F8948091C7019091C8011C
:1002A000A091C901B091CA0126B5A89B05C02F3FF6
:1002B00019F00196A11DB11D3FBFBA2FA92F982F8C
:1002C0008827820F911DA11DB11DBC01CD0142E007
:1002D000660F771F881F991F4A95D1F708958F924F
:1002E0009F92AF92BF92CF92DF92EF92FF926B01FB
:1002F0007C010E944A014B015C01C114D104E1045C
:10030000F104F1F00E944A01DC01CB01881999093E
:10031000AA09BB09883E9340A105B10570F321E00D
:10032000C21AD108E108F10888EE880E83E0981E11
:10033000A11CB11CC114D104E104F10419F7DDCFF3
:10034000FF90EF90DF90CF90BF90AF909F908F90F5
:100350000895AF92BF92CF92DF92FF920F931F93B7
:10036000CF93DF93EC016C0186E0C80ED11CCC1555
:10037000DD0559F1F99000E010E0AF2C0F2C000CD6
:10038000BB08B501002E02C0759567950A94E2F787
:100390006170772787E00E94DE0061E070E080E016
:1003A00090E00E946F010F5F1F4F0830110549F761
:1003B000F7FEDDCF60E087E00E94DE0061E070E0E4
:1003C00080E090E00E946F01D2CFDF91CF911F912A
:1003D0000F91FF90DF90CF90BF90AF9008952FB70F
:1003E000F8946091C3017091C4018091C50190910E
:1003F000C6012FBF0895CF92DF92EF92FF920F9325
:100400001F93CF93DF936C017A018B01C0E0D0E0A2
:10041000CE15DF0589F0D8016D918D01D601ED91E2
:10042000FC910190F081E02DC6010995892B11F412
:100430007E0102C02196ECCFC701DF91CF911F91C1
:100440000F91FF90EF90DF90CF900895FC01918D78
:10045000828D981761F0828DDF01A80FB11D5D9626
:100460008C91928D9F5F9F73928F90E008958FEF94
:100470009FEF0895FC01918D828D981731F0828D48
:10048000E80FF11D858D90E008958FEF9FEF08959F
:10049000FC01918D228D892F90E0805C9F4F821B03
:1004A00091098F73992708958BEC91E00E9448027F
:1004B00021E0892B09F420E0822F0895FC01848D2E
:1004C000DF01A80FB11DA35ABF4F2C91848D90E07E
:1004D00001968F739927848FA689B7892C93A08959
:1004E000B1898C9180648C93938D848D981306C010
:1004F0000288F389E02D80818F7D80830895EF92BB
:10050000FF920F931F93CF93DF93EC0181E0888FCD
:100510009B8D8C8D981305C0E889F989808185FDB4
:1005200024C0F62E0B8D10E00F5F1F4F0F731127A5
:10053000E02E8C8DE8120CC00FB607FCFACFE889CC
:10054000F989808185FFF5CFCE010E945E02F1CF4F
:100550008B8DFE01E80FF11DE35AFF4FF0820B8FE8
:10056000EA89FB898081806207C0EE89FF89608308
:10057000E889F98980818064808381E090E0DF915F
:10058000CF911F910F91FF90EF900895CF93DF933C
:10059000EC01888D8823C9F0EA89FB89808185FD7B
:1005A00005C0A889B9898C9186FD0FC00FB607FCDC
:1005B000F5CF808185FFF2CFA889B9898C9185FF1D
:1005C000EDCFCE010E945E02E7CFDF91CF9108957B
:1005D00080E090E0892B29F00E94540281110C9454
:1005E00000000895009769F0FC0101900020E9F7F0
:1005F0003197AF01481B590BBC018BEC91E00C9477
:10060000FB0180E090E00895CF93DF930E94F20217
:10061000EC018DE691E00E94F2028C0F9D1FDF91AC
:10062000CF91089581E191E00E94040360E087E0AA
:100630000E94DE0061E070E080E090E00E946F01C7
:1006400061E087E00E94DE0061E070E080E090E021
:100650000E946F0160E087E00E94DE0061E070E0D0
:1006600080E090E00E946F0161E087E00E94DE0080
:100670006AE070E080E090E00C946F014F925F922E
:100680006F927F928F929F92AF92BF92EF92FF9262
:100690000F931F93CF93DF937C014A015B01E90124
:1006A0008E859F85892BB9F48E899F891816190626
:1006B00094F421E0E216F10471F4012B61F48881D5
:1006C0009981AA81BB8188519C4FAF4FBF4F8883CE
:1006D0009983AA83BB8388819981AA81BB81A50163
:1006E0009401281B390B4A0B5B0BCA01B9010E940C
:1006F000690920E030E04AE754E40E94BF082B017A
:100700003C0120E030E0A9010E94F50920E030E042
:1007100040E05FE387FD05C0C301B2010E945308BA
:1007200004C0C301B2010E9452080E943109DB01DA
:10073000109709F45DC041E050E02E853F852830D8
:100740003105C4F4E114F10469F4EC85FD85CA01B6
:10075000022E02C0880F991F0A94E2F78E0F9F1F86
:100760009D878C872F5F3F4F3F872E8711971A16E3
:100770001B061CF38E859F850897B4F18E899F898F
:100780009C012F5F3F4F3F8B2E8BFE01E80FF91F1F
:100790004C85408B2530310554F080E291E00E9479
:1007A000F202CE0140960E94040381E022C01F861F
:1007B0001E861D861C861A161B06B4F428EE33E02E
:1007C0000E943608A5019401261B370B480B590BD4
:1007D000288339834A835B8301E010E09E01B501E1
:1007E000A401C7010E943E0388829982AA82BB822B
:1007F00080E0DF91CF911F910F91FF90EF90BF901C
:10080000AF909F908F907F906F905F904F900895E2
:100810008F929F92AF92BF920F931F93CF93DF93CC
:10082000CDB7DEB7A1970FB6F894DEBF0FBECDBF30
:1008300019A2423008F44AE08E010F5D1F4F842E4A
:10084000912CA12CB12CA50194010E941408E62F33
:10085000B901CA0101501109EA3014F4E05D01C088
:10086000E95CD801EC93232B242B252B61F7C801DD
:100870000E94F202A1960FB6F894DEBF0FBECDBF64
:10088000DF91CF911F910F91BF90AF909F908F906C
:1008900008952F923F924F925F926F927F928F9224
:1008A0009F92AF92BF92CF92DF92EF92FF920F93FF
:1008B0001F93CF93DF93CDB7DEB7A1970FB6F89410
:1008C000DEBF0FBECDBF99A388A39E012F5F3F4F10
:1008D0003A8F298F88E1D9011D928A95E9F71B8EFD
:1008E00086E00E94B50021E0892B09F420E0BB8D51
:1008F0002B17B1F32B8F0E944A016B017C01EB8D0A
:100900002E2E312C89859A85892B09F063C08D8123
:100910009E81AF81B885892B8A2B8B2B21F4CD82C8
:10092000DE82EF82F8862D813E814F8158852C8FA3
:100930003D8F4E8F5F8F26013701421A530A640A9A
:10094000750AC301B2010E94690920E030E04AE75C
:1009500054E40E94BF084B015C0120E030E0A90193
:100960000E94F50920E030E040E05FE387FD05C02C
:10097000C501B4010E94530804C0C501B4010E941E
:1009800052080E94310931E02316310449F4452808
:1009900046284728C1F4CD82DE82EF82F8861AC04D
:1009A0002114310481F46A3071056CF08C8D9D8DB9
:1009B000AE8DBF8D89839A83AB83BC83A1E0B0E009
:1009C000BA87A98707C0E98DFA8D28E111922A9587
:1009D000E9F786CF89859A85892B09F481CF8981AA
:1009E0009A81AB81BC81A7019601281B390B4A0B68
:1009F0005B0BCA01B9010E94690920E030E04AE7B7
:100A000054E40E94BF084B015C0120E030E0A901E2
:100A10000E94F50920E030E040E05FE387FD05C07B
:100A2000C501B4010E94530804C0C501B4010E946D
:100A300052080E9431098B859C85892B99F46A3074
:100A400071050CF241E050E05C874B878D819E81FF
:100A5000AF81B885805F984DAF4FBF4F89839A8330
:100A6000AB83BC8300E010E09E012F5F3F4FB701D6
:100A7000A601C1010E943E03882309F431CF82E31D
:100A800091E00E94F202CE0141960E94040386E0AA
:100A9000FE017196A8A1B9A101900D928A95E1F786
:100AA00081E0A1960FB6F894DEBF0FBECDBFDF91F7
:100AB000CF911F910F91FF90EF90DF90CF90BF905B
:100AC000AF909F908F907F906F905F904F903F90EE
:100AD0002F900895CF92DF92EF92FF92CF93DF9302
:100AE0006C01990FEE08FF08F7FE1FC0E091CB01E3
:100AF000F091CC010190F081E02D6DE28BEC91E062
:100B00000995EC0166277727CB016C197D098E09C1
:100B10009F094AE00E9408048C0F9D1FDF91CF912E
:100B2000FF90EF90DF90CF9008954AE0C701B601A3
:100B3000DF91CF91FF90EF90DF90CF900C9408045D
:100B40000E941E0A1F920F920FB60F9211242F932C
:100B50003F938F939F93AF93BF938091C3019091E5
:100B6000C401A091C501B091C6013091C20123E03A
:100B7000230F2D3720F40196A11DB11D05C026E8D5
:100B8000230F0296A11DB11D2093C2018093C301C2
:100B90009093C401A093C501B093C6018091C70191
:100BA0009091C801A091C901B091CA010196A11DFF
:100BB000B11D8093C7019093C801A093C901B09360
:100BC000CA01BF91AF919F918F913F912F910F904B
:100BD0000FBE0F901F9018951F920F920FB60F9295
:100BE00011242F933F934F935F936F937F938F9332
:100BF0009F93AF93BF93EF93FF938BEC91E00E9491
:100C00005E02FF91EF91BF91AF919F918F917F9184
:100C10006F915F914F913F912F910F900FBE0F9069
:100C20001F9018951F920F920FB60F9211242F93B9
:100C30008F939F93EF93FF93E091DB01F091DC01A1
:100C40008081E091E101F091E20182FD12C090818A
:100C50008091E4018F5F8F732091E501821751F03D
:100C6000E091E401F0E0E553FE4F958F8093E401BD
:100C700001C08081FF91EF919F918F912F910F90F3
:100C80000FBE0F901F901895CF93DF93CDB7DEB7AF
:100C90002C970FB6F894DEBF0FBECDBF789484B505
:100CA000826084BD84B5816084BD85B5826085BD68
:100CB00085B5816085BD80916E00816080936E00F6
:100CC00010928100809181008260809381008091E8
:100CD0008100816080938100809180008160809399
:100CE00080008091B10084608093B1008091B00059
:100CF00081608093B00080917A00846080937A0054
:100D000080917A00826080937A0080917A0081607D
:100D100080937A0080917A00806880937A001092A4
:100D2000C100E091DB01F091DC0182E08083E09181
:100D3000D701F091D8011082E091D901F091DA0148
:100D400080E180831092E301E091DF01F091E00106
:100D500086E08083E091DD01F091DE018081806199
:100D60008083E091DD01F091DE01808188608083E5
:100D7000E091DD01F091DE01808180688083E09167
:100D8000DD01F091DE0180818F7D808382E491E03E
:100D90000E94F20262E082E00E940E0162E083E0C3
:100DA0000E940E0182E00E94B50001E010E0892B54
:100DB00011F000E010E083E00E94B500892B19F0EB
:100DC00080E090E002C082E090E0800F911F90935D
:100DD000C1018093C00121E0892B09F020E020931C
:100DE00000018AE591E00E94F2028091C001909199
:100DF000C1010E946A0582E691E00E94F2028091A0
:100E0000000190E00E946A058DE691E00E94F202E6
:100E100080910001882349F062E084E00E940E0185
:100E200062E085E00E940E0108C061E084E00E945B
:100E30000E0160E084E00E94DE0060E086E00E9437
:100E40000E0161E087E00E940E01C12CD12C7601D9
:100E50008E01095F1F4F86E0982E92E0892ECE0109
:100E600001965C01F801292D11922A95E9F78091EC
:100E700000018823A1F084E00E94B500892BD9F5F8
:100E80000E94EF01DC01CB018C199D09AE09BF095D
:100E900089389341A105B10508F059C02CC0C8019B
:100EA0000E9449048823F1F2C8010E9404038F8143
:100EB0008130C1F680E791E00E940403788421E04C
:100EC0007212D0CF61E084E00E94DE001F82809128
:100ED000C001888779860E941203C8010E94A90177
:100EE00068EB7BE080E090E00E946F0160E084E0CE
:100EF0000E94DE00B7CF85E00E94B500892B09F083
:100F0000B1CF0E94EF01DC01CB018C199D09AE0924
:100F1000BF0989389341A105B10508F4A3CF8FEA31
:100F200091E00E94F2028F8281E088870E94120382
:100F3000C8010E94A9010E94EF016B017C014AE0F7
:100F40000E9408048DE691E00E94F2028BCF8EE9A8
:100F500091E00E94F20281E08F8388870E94120351
:100F6000C8010E94A9010E94EF016B017C014AE0C7
:100F70000E9408048DE691E00E94F202F501292DFD
:100F800011922A95E9F7C5010E944904882309F4C2
:100F900069CFC5010E940403898190E02091C001BE
:100FA0003091C1018217930709F05CCF80E791E08F
:100FB0000E9404038A81813009F054CF8B818130F3
:100FC00009F050CF83E891E00E9404034BCFEBEC93
:100FD000F1E01382128288EE93E0A0E0B0E0848317
:100FE0009583A683B78385E091E09183808385EC28
:100FF00090E09587848784EC90E09787868780ECE3
:1010000090E0918B808B81EC90E0938B828B82ECD3
:1010100090E0958B848B86EC90E0978B868B118E7D
:10102000128E138E148E0895A1E21A2EAA1BBB1BDA
:10103000FD010DC0AA1FBB1FEE1FFF1FA217B307A4
:10104000E407F50720F0A21BB30BE40BF50B661FBA
:10105000771F881F991F1A9469F76095709580957E
:1010600090959B01AC01BD01CF0108950E944308FA
:10107000B7FF0895821B930B0895EE0FFF1F059095
:10108000F491E02D0994A29FB001B39FC001A39FEA
:10109000700D811D1124911DB29F700D811D1124B1
:1010A000911D08955058BB27AA270E946A080C94E6
:1010B000BB090E94AD0938F00E94B40920F039F450
:1010C0009F3F19F426F40C94AA090EF4E095E7FB6F
:1010D0000C94A409E92F0E94CC0958F3BA176207AF
:1010E00073078407950720F079F4A6F50C94EE09B0
:1010F0000EF4E0950B2EBA2FA02D0B01B901900133
:101100000C01CA01A0011124FF27591B99F0593F76
:1011100050F4503E68F11A16F040A22F232F342FBE
:101120004427585FF3CF469537952795A795F0400C
:101130005395C9F77EF41F16BA0B620B730B840B21
:10114000BAF09150A1F0FF0FBB1F661F771F881FD9
:10115000C2F70EC0BA0F621F731F841F48F4879531
:1011600077956795B795F7959E3F08F0B0CF939523
:10117000880F08F09927EE0F9795879508950E949C
:10118000D3080C94BB090E94B40958F00E94AD0921
:1011900040F029F45F3F29F00C94A40951110C94FC
:1011A000EF090C94AA090E94CC0968F39923B1F3C2
:1011B000552391F3951B550BBB27AA27621773077D
:1011C000840738F09F5F5F4F220F331F441FAA1F11
:1011D000A9F335D00E2E3AF0E0E832D091505040CD
:1011E000E695001CCAF72BD0FE2F29D0660F771F7B
:1011F000881FBB1F261737074807AB07B0E809F061
:10120000BB0B802DBF01FF2793585F4F3AF09E3FE5
:10121000510578F00C94A4090C94EF095F3FE4F3B6
:10122000983ED4F3869577956795B795F7959F5F28
:10123000C9F7880F911D9695879597F90895E1E074
:10124000660F771F881FBB1F621773078407BA07D3
:1012500020F0621B730B840BBA0BEE1F88F7E0952E
:1012600008950E9438096894B1110C94EF0908950B
:101270000E94D40988F09F5798F0B92F9927B75149
:10128000B0F0E1F0660F771F881F991F1AF0BA952A
:10129000C9F714C0B13091F00E94EE09B1E0089591
:1012A0000C94EE09672F782F8827B85F39F0B93F83
:1012B000CCF3869577956795B395D9F73EF49095DD
:1012C0008095709561957F4F8F4F9F4F0895E8945B
:1012D00009C097FB3EF490958095709561957F4F7E
:1012E0008F4F9F4F9923A9F0F92F96E9BB2793952C
:1012F000F695879577956795B795F111F8CFFAF43C
:10130000BB0F11F460FF1BC06F5F7F4F8F4F9F4F6C
:1013100016C0882311F096E911C0772321F09EE8CA
:10132000872F762F05C0662371F096E8862F70E030
:1013300060E02AF09A95660F771F881FDAF7880F0A
:101340009695879597F9089597F99F6780E870E0DB
:1013500060E008959FEF80EC089500240A9416162B
:10136000170618060906089500240A941216130693
:10137000140605060895092E0394000C11F4882321
:1013800052F0BB0F40F4BF2B11F460FF04C06F5F3D
:101390007F4F8F4F9F4F089557FD9058440F551F13
:1013A00059F05F3F71F04795880F97FB991F61F0E7
:1013B0009F3F79F087950895121613061406551F5E
:1013C000F2CF4695F1DF08C0161617061806991FCA
:1013D000F1CF86957105610508940895E894BB27BF
:1013E00066277727CB0197F908950E94FA0908F438
:1013F0008FEF0895990F0008550FAA0BE0E8FEEF54
:1014000016161706E807F907C0F012161306E407C8
:10141000F50798F0621B730B840B950B39F40A26C1
:1014200061F0232B242B252B21F408950A2609F49F
:10143000A140A6958FEF811D811D089581E090E068
:0A144000F8940C94230AF894FFCFEF
:10144A0001000000007F02FB01480226023A02C6A0
:10145A000273656E6420707265616D62756C6500F9
:10146A00537472696E672072656365697665643A5A
:10147A002000646174612072656365697665643A07
:10148A0020005374617274696E672072696E675FB7
:10149A006C6974655F76310D0A004D792049443ACA
:1014AA0020004973204D61737465723A200D0A0059
:1014BA004E6577204D65737361676520666F72208C
:1014CA006D650072696E6720616363657074656437
:1014DA002C20737461727420617564696F00494EBF
:1014EA005055543120707265737365640D0A004952
:1014FA004E5055543220707265737365640D0A003C
:00000001FF
