:100000000C9462000C948A000C948A000C948A0070
:100010000C948A000C948A000C948A000C948A0038
:100020000C948A000C948A000C948A000C948A0028
:100030000C948A000C948A000C948A000C948A0018
:100040000C94CF0F0C948A000C943F100C94191050
:100050000C948A000C948A000C948A000C948A00F8
:100060000C945D070C948A00000000002400270017
:100070002A0000000000250028002B0000000000DE
:1000800023002600290004040404040404040202DA
:100090000202020203030303030301020408102007
:1000A0004080010204081020010204081020000012
:1000B0000008000201000003040700000000000027
:1000C0000000941011241FBECFEFD8E0DEBFCDBFDB
:1000D00013E0A0E0B1E0E6E0FBE202C005900D9283
:1000E000A43BB107D9F725E0A4EBB3E001C01D9212
:1000F000A235B207E1F710E0C2E6D0E004C02197D4
:10010000FE010E942213C136D107C9F70E94DA10FE
:100110000C9481150C940000FC0163830895FC018C
:10012000748B638B0895DC015396ED91FC91549789
:10013000309749F020E030E040E050E060E070E0CF
:1001400080E090E0099408950895FC0181899289E6
:100150000895FC01878590890895FC018585968521
:100160000895FC01838594850895FC01818592851D
:100170000895089508950F931F93CF93DF93EC0193
:100180008A01E881F981028CF38DE02D0995E881DF
:10019000F981068CF78DE02DB801CE01DF91CF916A
:1001A0001F910F910994FC01748763870895FC01E6
:1001B000728761876130710519F48CEF91E205C097
:1001C0006230710561F480EB9DE19687858780E35D
:1001D0009AE2908B87878AE090E0928B818B0895DA
:1001E000FC0180850895FC0160870895FC018781EA
:1001F0000895FC0167830895FC0186810895FC0140
:1002000066830895FC0185810895FC016583089546
:10021000FC0184810895FC0164830895089580E0C1
:100220000895EF92FF920F931F93CF93DF938C016A
:10023000EB010E94D700C130D10531F0229731F493
:1002400088E0E82EF12C02C0E12CF12CF801F58EAB
:10025000E48EDF91CF911F910F91FF90EF90089561
:100260009091BC0097FFFCCF8093BB0084E8809303
:10027000BC008091BC0087FFFCCF089584EA809386
:10028000BC008091BC0087FFFCCF08950895E091E9
:10029000040480910304E81730F4F0E0EB5FFB4FB7
:1002A000808190E008958FEF9FEF0895909104046E
:1002B00080910304981750F4E92FF0E0EB5FFB4FB7
:1002C000208130E09F5F9093040402C02FEF3FEF46
:1002D000C90108951F93CF93DF938DE095E00E94AD
:1002E0005601182F8DE095E00E945601D12F20E095
:1002F000C22F9E01280F311DC901DF91CF911F919F
:1003000008958091030490E020910404821B9109D8
:10031000089585ED8093BC008091BC0084FDFCCFE6
:1003200010924B0408954091D603262F30E0240FFD
:10033000311D21323105DCF420914B042430C9F405
:10034000FC0180E090E0861758F43091D6032191AB
:10035000DC01AC54BC4FA30FB11D2C930196F3CF1D
:100360008091D603680F6093D60380E0089581E002
:10037000089582E00895CF92DF92EF92FF920F935B
:100380001F93CF93DF937C01262F972F8A018091B3
:100390004C04882391F0C62FD72F6E01C40ED51EB2
:1003A000CC15DD0571F06991D701ED91FC910190BB
:1003B000F081E02DC7010995F3CF642F822F0E94B1
:1003C0009301C801DF91CF911F910F91FF90EF90A2
:1003D000DF90CF900895CF93DF931F92CDB7DEB714
:1003E000698320914C042223D1F020916F042032A4
:1003F00040F021E030E0FC013383228380E090E094
:1004000015C080914D04E82FF0E0E25BFB4F99812D
:1004100090838F5F80934D0480936F0405C061E0EB
:10042000CE0101960E94930181E090E00F90DF9150
:10043000CF910895CF93C62F672F8DE095E00E944E
:10044000EB016C2F8DE095E0CF910C94EB01CF93F5
:10045000DF93CDB7DEB727970FB6F894DEBF0FBE98
:10046000CDBFDC01ED91FC9104A4F5A5E02DBE010A
:100470006F5F7F4F09958C81811103C08EE691E0FB
:1004800002C089E691E00E94F1098D81811103C0CB
:100490008AE791E002C083E791E00E94F1098F8131
:1004A000811103C089E891E002C081E891E00E94D7
:1004B000F10981E991E00E94F1096A8170E080E030
:1004C00090E04AE00E94F3098AE991E00E94F10974
:1004D0006B8170E080E090E04AE00E94F3090E94A6
:1004E000E10927960FB6F894DEBF0FBECDBFDF91AE
:1004F000CF910895CF92DF92EF92FF920F931F93C7
:10050000CF93DF931F92CDB7DEB78C016B01DC0177
:10051000ED91FC91048CF58DE02D498309957C01CA
:10052000D801ED91FC9100A0F1A1E02DC801099541
:100530004981C114D104E1F14B30D0F1F6011082B0
:10054000F1E0EF1AF10822E0E216F10488F545E047
:10055000EAE0F0E010E24150242F30E0443011F0A6
:10056000009751F02C0D3D1DBF010E94E512805DEA
:10057000D9018C93CB0104C0D601A20FB31F1C93E9
:100580004111E9CFF60184818583838184838EE2E2
:10059000838362EA71E0C60106960F90DF91CF91E6
:1005A0001F910F91FF90EF90DF90CF900C947A15F0
:1005B0000F90DF91CF911F910F91FF90EF90DF90FF
:1005C000CF900895DC01FB01108211821282138208
:1005D00014968C911497808317968C91179781832A
:1005E00018968C911897828315968C918383089521
:1005F00027E0FB0111922A95E9F7FC018681FB01B6
:1006000085830895FF920F931F93CF93DF938C01FF
:10061000F62EFC018381C62FD0E0882351F18EE3B2
:100620000E94340A87EA91E00E94F10986EB91E08A
:100630000E94F1098F2D90E0A0E0B0E040E1BC0104
:10064000CD010E94F3098AEB91E00E94F109FE01BD
:100650003B96EE0FFF1FE00FF11F6081718180E07C
:1006600090E040E10E94F30989E20E94340A0E946E
:10067000E10981E080934C0481E180936E04109243
:100680004D0410926F046F2D8DE095E00E94EB01F8
:100690002B96CC0FDD1FC00FD11F68817981C80157
:1006A0000E941A02DF91CF911F910F91FF900C943D
:1006B000250B1F93CF93DF93EC01162F8A8D9B8D13
:1006C0009D7F91609B8F8A8F62E0CE010E94020322
:1006D00011110CC08A8D9B8D9E7F9B8F8A8F62E04B
:1006E000CE01DF91CF911F910C940203DF91CF9146
:1006F0001F9108951F93CF93DF93EC01162F8A8DDE
:100700009B8D93609B8F8A8F62E0CE010E940203D3
:1007100011110CC08A8D9B8D9E7F9B8F8A8F62E00A
:10072000CE01DF91CF911F910C940203DF91CF9105
:100730001F9108950F931F93CF93DF938C01EB01CB
:10074000DC0113968C918823B9F08EE30E94340A61
:100750008FEB91E00E94F10988E20E94340ACE01F9
:10076000A0E0B0E04AE0BC01CD010E94F30989E2BB
:100770000E94340A0E94E109D8015C96ED91FC9137
:100780005D97EF70FF271D968D919C911E979E019E
:10079000C817D90708F49C01D8011F964D915C91A8
:1007A000509770964217530708F49A01A901481B05
:1007B000590BCA016AE070E00E94E512EB0186E085
:1007C000CC0FDD1F8A95E1F7CE2BDF2BD8015A968F
:1007D0008D919C915B978960906C5B969C938E93B6
:1007E0005A9762E0C8010E940203F801D58FC48FB6
:1007F00063E0C8010E94020365E0C801DF91CF9168
:100800001F910F910C940203FC016087268D378D98
:10081000662311F0326002C03D7FFC01378F268FC6
:1008200064E00C940203FC016783228D338D662300
:1008300011F03F7B02C03064FC01338F228F62E0F5
:100840000C940203FC016683828D938D9C013E7F94
:10085000338F228F662321F03062338F228F03C0C3
:100860009E7D938F828F62E0CF010C940203FC0186
:100870006583228D338D662311F0306101C03F7E88
:10088000FC01338F228F62E00C940203FC0164832D
:100890006F7020A131A1207F262B31A320A365E01A
:1008A0000C940203EF92FF920F931F93CF93DF9369
:1008B000EC018B81882359F08EE30E94340A8CEC82
:1008C00091E00E94F1098BED91E00E94E50981E041
:1008D00080934C0480E180936E0410924D0410923A
:1008E0006F048E01065E1F4F7E0184E2E80EF11C4C
:1008F000F801619171918F01CE010E941A020E15CB
:100900001F05B1F7DF91CF911F910F91FF90EF90ED
:100910000C94250BCF93DF93EC018B81882359F046
:100920008EE30E94340A8EED91E00E94F1098BED76
:1009300091E00E94E509E881F9810480F581E02DCC
:1009400060E0CE0109951B8E1A8ECE01DF91CF910A
:100950000C9452041F93CF93DF93FC0123893489B5
:10096000232B09F479C0EC0182E090E00E946C0B2B
:10097000CE010E946A019BA78AA70E94250B8AA527
:100980009BA593FF0AC08B81882339F08EE30E94D8
:10099000340A83EE91E00E94E5098AA59BA597FFA2
:1009A0005BC081E080934C0481E180936E041092DF
:1009B0004D0410926F046CE08DE095E00E94EB0115
:1009C00080E00E94C80A41E068E081E10E94280BB3
:1009D0001092040480930304CE010E946A012EA5A4
:1009E0003FA58217930721F09FA78EA711E001C0B2
:1009F00010E0CE010E946A0128A939A98217930745
:100A000019F099AB88AB11E0CE010E946A012AA9C6
:100A10003BA98217930719F09BAB8AAB11E0CE017B
:100A20000E946A012CA93DA98217930719F09DAB7A
:100A30008CAB11E00E94250B112371F02CA93DA96C
:100A40004AA95BA968A979A9EB89FC898EA59FA50C
:100A5000DF91CF911F910994DF91CF911F9108955C
:100A6000EF92FF920F931F93CF93DF938C018CE053
:100A700090E00E946C0BE801AA96780186E3E80EEC
:100A8000F11CC8010E946A0189939993CE15DF0574
:100A9000C1F7DF91CF911F910F91FF90EF900C94D0
:100AA000250BCF92DF92EF92FF920F931F93CF937C
:100AB000DF93CDB7DEB72C970FB6F894DEBF0FBE2D
:100AC000CDBF8C010E943005D801ED91FC9106A8A4
:100AD000F7A9E02D4CE0BE016F5F7F4FC80109957B
:100AE00082E092E00E94F109CE0101960E94F10994
:100AF000F801E6A4F7A48DE092E00E94F109B701A5
:100B0000C8010E947110D8019A968D919C919B9773
:100B100092FD03C08AEF91E002C082EF91E00E9453
:100B2000F109F80182A593A597FD03C089E691E03C
:100B300002C08EE691E00E94F109D8019D968C9149
:100B4000E82EE694E694F12C82E192E00E94F1090D
:100B5000BAE0EB16F1042CF460E280E794E00E9426
:100B6000220FC7010E94790B80E20E94340AC12C37
:100B7000D12CEFE0EE1AF108CE14DF044CF46AE257
:100B800080E794E00E94220FFFEFCF1ADF0AF4CF34
:100B90000E94E10988E192E00E94E509780186E17E
:100BA000E80EF11C6801A6E3CA0ED11CF7016191A1
:100BB00071917F01C8010E947110EC14FD04B1F71E
:100BC0000E94E10981E080934C0481E180936E04EE
:100BD00010924D0410926F0460E08DE095E00E9449
:100BE000EB0180E00E94C80A41E060E281E10E94DE
:100BF000280B109204048093030480E1E82EF12C6A
:100C0000C8010E946A01BC01C8010E947110F1E094
:100C1000EF1AF108A9F70E94250B0E94E109D801FB
:100C2000ED91FC910288F389E02DC8010995882394
:100C300021F085E692E00E94F109D801ED91FC9146
:100C400002A4F3A5E02DC8010995882321F080E7CF
:100C500092E00E94F109D801ED91FC910680F781A4
:100C6000E02DC8010995182F86E792E00E94F1094E
:100C7000812F90E00E94790B80E20E94340A0E944A
:100C8000E1092C960FB6F894DEBF0FBECDBFDF9101
:100C9000CF911F910F91FF90EF90DF90CF9008952B
:100CA0000F931F93CF93DF938C01EB010E94F80207
:100CB000C8010E94300521E02883F80182A593A590
:100CC00092FD2E8397FF02C081E08B83F80185A5FA
:100CD00086958695898384A595A590FF02C081E0BD
:100CE0008C83F801828D938D95FF02C081E08D8306
:100CF000DF91CF911F910F910895CF93DF93EC0176
:100D000082E090E00E946C0BCE010E946A019BA7DA
:100D10008AA70E94250B2AA53BA533708AE0829FF3
:100D2000A001839F500D11248D859E85840F951FF2
:100D30009C878B87DF91CF9108951F93CF93DF938B
:100D4000EC018B81882359F08EE30E94340A8EE7F0
:100D500092E00E94F1098BED91E00E94E50910926A
:100D600004041092030410924D0410926F04109228
:100D70004B0411E010934A041092250461E082E1D3
:100D80000E94F10C61E083E10E94F10C8091B900B6
:100D90008E7F8093B9008091B9008D7F8093B900D8
:100DA00088E48093B80085E48093BC0010934C04E1
:100DB00081E180936E0410924D0410926F040E94A2
:100DC000250B811138C08B81882339F08EE30E9476
:100DD000340A83E892E00E94E50984E098E59F8B5D
:100DE0008E8B198E188E83E090E09B8F8A8FE8811E
:100DF000F981028CF38DE02D61E070E0CE01099560
:100E000080E098E09F8F8E8F81E890E999A388A376
:100E10001BA21AA21DA21CA21FA21EA219A618A6DE
:100E2000CE010E94520481E090E09B8F8A8F62E0A5
:100E3000CE010E94020381E0DF91CF911F910895BE
:100E4000CF93C82F0E943E018CE70E9430018C2F67
:100E50000E9430010E943E018DE70E943001809186
:100E6000BC0087FFFCCF84E88093BC008091BC006D
:100E700087FFFCCF8091BB0094E99093BC00CF9199
:100E800008951F93CF93DF931F92CDB7DEB7182F2E
:100E900069830E943E018CE70E943001812F0E94ED
:100EA00030016981862F0E94300184E98093BC0063
:100EB0000F90DF91CF911F9108951F920F920FB65F
:100EC0000F9211242F933F934F935F936F937F93D0
:100ED0008F939F93AF93BF93EF93FF938091B9004C
:100EE000887F803609F49CC068F5883209F45BC0BD
:100EF00090F4803109F454C038F4882309F4F6C022
:100F0000883009F44DC0F6C0883109F44CC08032F5
:100F100009F45DC0EFC0803409F468C048F4803340
:100F200009F455C0883309F0E5C080934904D8C05E
:100F3000803509F44FC0883509F45DC0883409F064
:100F4000D9C0D6C0883909F4C7C0A8F4883709F4D5
:100F500067C038F4883609F463C0803709F460C08C
:100F6000C9C0883809F4B8C0803909F45FC0803836
:100F700009F0C0C05BC0803B09F486C038F4803AF9
:100F800009F466C0883A09F47FC0B4C0803C09F413
:100F9000A7C0883C09F4A4C0883B09F48AC0AAC051
:100FA0008091260410C090914804809147049817BE
:100FB00070F5E091480481E08E0F80934804F0E0E2
:100FC000E95DFB4F80818093BB0085EC86C08093F8
:100FD00049048EC0E091480481E08E0F809348045C
:100FE0008091BB00F0E0E95DFB4F80839091480465
:100FF000809147046EC0E091480481E08E0F809399
:1010000048048091BB00F0E0E95DFB4F8083809154
:101010004A0481116DC081E08093250484EA61C097
:1010200083E080934B041092FA03CFCF8091FA03B0
:10103000803208F051C0E091FA0381E08E0F809376
:10104000FA038091BB00F0E0E652FC4F8083BDCFF5
:1010500085EC8093BC0010924B048091FA0380329F
:1010600030F4E091FA03F0E0E652FC4F1082609118
:10107000FA0370E0E091D803F091D9038AED93E090
:1010800009951092FA0336C084E080934B041092C5
:10109000D7031092D603E091D403F091D5030995BC
:1010A0008091D603811105C081E08093D603109210
:1010B000B403E091D70381E08E0F8093D703F0E073
:1010C000EC54FC4F80818093BB009091D7038091BA
:1010D000D603981708F479CF85E88093BC000AC03E
:1010E00085EC8093BC0010924B0404C0109249041C
:1010F0000E948901FF91EF91BF91AF919F918F91D4
:101100007F916F915F914F913F912F910F900FBE03
:101110000F901F90189580E992E00E94E50960E029
:1011200087E00E94F10C61E070E080E090E00E94B6
:10113000120E61E087E00E94F10C61E070E080E057
:1011400090E00E94120E60E087E00E94F10C61E0E6
:1011500070E080E090E00E94120E61E087E00E9463
:10116000F10C6AE070E080E090E00C94120E4F9277
:101170005F926F927F928F929F92AF92BF92EF9207
:10118000FF920F931F93CF93DF937C014A015B0182
:10119000E9018E859F85892BB9F48E899F89181660
:1011A000190694F421E0E216F10471F4012B61F4C4
:1011B00088819981AA81BB8188519C4FAF4FBF4FD5
:1011C00088839983AA83BB8388819981AA81BB8103
:1011D000A5019401281B390B4A0B5B0BCA01B9010D
:1011E0000E94531420E030E04AE754E40E94A9131F
:1011F0002B013C0120E030E0A9010E94031520E012
:1012000030E040E05FE387FD05C0C301B2010E940A
:10121000381304C0C301B2010E9437130E941B148B
:10122000DB01109709F45DC041E050E02E853F8559
:1012300028303105C4F4E114F10469F4EC85FD852E
:10124000CA01022E02C0880F991F0A94E2F78E0F7E
:101250009F1F9D878C872F5F3F4F3F872E8711975A
:101260001A161B061CF38E859F850897B4F18E898C
:101270009F899C012F5F3F4F3F8B2E8BFE01E80F14
:10128000F91F4C85408B2530310554F08FE992E0F1
:101290000E94F109CE0140960E94E50981E022C03A
:1012A0001F861E861D861C861A161B06B4F428EEA1
:1012B00033E00E941B13A5019401261B370B480B3A
:1012C000590B288339834A835B8301E010E09E0138
:1012D000B501A401C7010E94B70888829982AA8239
:1012E000BB8280E0DF91CF911F910F91FF90EF9033
:1012F000BF90AF909F908F907F906F905F904F9036
:101300000895833081F028F4813099F08230A1F083
:1013100008958730A9F08830B9F08430D1F48091F5
:1013200080008F7D03C0809180008F778093800044
:10133000089584B58F7702C084B58F7D84BD0895EC
:101340008091B0008F7703C08091B0008F7D809333
:10135000B00008953FB7F8948091FF039091000486
:10136000A0910104B091020426B5A89B05C02F3FAF
:1013700019F00196A11DB11D3FBFBA2FA92F982FBB
:101380008827820F911DA11DB11DBC01CD0142E036
:10139000660F771F881F991F4A95D1F70895009708
:1013A00069F0FC0101900020E9F73197AF01481B7B
:1013B000590BBC0180E794E00C949E0E80E090E015
:1013C00008958AE393E00C94CF09CF93DF930E94B2
:1013D000CF09EC010E94E1098C0F9D1FDF91CF9195
:1013E00008950C94CF098F929F92AF92BF920F9362
:1013F0001F93CF93DF93CDB7DEB7A1970FB6F894C5
:10140000DEBF0FBECDBF19A2423008F44AE08E0104
:101410000F5D1F4F842E912CA12CB12CA50194019E
:101420000E94F912E62FB901CA0101501109EA30F0
:1014300014F4E05D01C0E95CD801EC93232B242B6C
:10144000252B61F7C8010E94CF09A1960FB6F89429
:10145000DEBF0FBECDBFDF91CF911F910F91BF9027
:10146000AF909F908F900895E0917004F091710477
:101470000190F081E02D682F80E794E009948F922D
:101480009F92AF92BF92CF92DF92EF92FF920F9313
:101490001F93CF93DF936B017C01142F20E030E08A
:1014A000A9010E94A41387FF09C08DE20E94340A9B
:1014B000EC01F7FAF094F7F8F09402C0C0E0D0E045
:1014C00000E060E070E080E09FE3011741F020E081
:1014D00030E040E251E40E94A9130F5FF6CF9B0178
:1014E000AC01C701B6010E9438136B017C010E9458
:1014F00022144B015C010E9451149B01AC01C701F5
:10150000B6010E9437136B017C014AE0C501B401AA
:101510000E94F309C80FD91F112331F080EF91E029
:101520000E94CF09C80FD91F112321F120E030E01C
:1015300040E251E4C701B6010E9408154B015C016D
:101540000E9422146B01E12CF12C4AE0C701B60184
:101550000E94F309C80FD91FC701B6010E94511498
:101560009B01AC01C501B4010E9437136B017C01E2
:101570001150DACFCE01DF91CF911F910F91FF90E3
:10158000EF90DF90CF90BF90AF909F908F90089595
:10159000382F20916F0490916E04213208F049C0D9
:1015A00080914B048111FCCF42E040934B04309377
:1015B0004A043FEF309349041092480420934704B3
:1015C000AEE4B4E047E254E0FA013E2F341B321798
:1015D00018F43D913193F9CF1092260420912604FE
:1015E000990F922B9093260490912504913061F4E9
:1015F00010922504909126049093BB009091BC001A
:1016000093FDF8CF95EC01C095EE9093BC009091BE
:101610004B049230E1F3909149049F3F79F080911F
:101620004904803241F080914904803331F084E0F4
:1016300005C081E003C082E001C083E010924D0448
:1016400010926F0410924C04089581E00C94C80A23
:1016500090914B049111FCCF91E090934B044093F7
:101660004A042FEF2093490410924804260F209338
:1016700047049093260490912604880F892B809329
:10168000260480912504813061F410922504809114
:1016900026048093BB008091BC0083FDF8CF85ECCD
:1016A00001C085EE8093BC0080914B048130E1F352
:1016B00080914804861710F460914804A7E2B4E0D2
:1016C00025E034E0F9018E2F821B861718F48D91E6
:1016D0008193F9CF862F0895813208F080E241E0AE
:1016E000682F80E10E94280B109204048093030469
:1016F0000895CF92DF92EF92FF92CF93DF936C0128
:10170000990FEE08FF08F7FE17C08DE20E94340A19
:10171000EC0166277727CB016C197D098E099F099B
:101720004AE00E94F3098C0F9D1FDF91CF91FF903B
:10173000EF90DF90CF9008954AE0C701B601DF91A6
:10174000CF91FF90EF90DF90CF900C94F309CF935F
:10175000DF93282F30E0F901E255FF4F8491F90122
:10176000E656FF4FD491F901EA57FF4FC491CC23BD
:1017700091F081110E948109EC2FF0E0EE0FFF1F24
:10178000E458FF4FA591B491EC91ED2381E090E0F6
:1017900021F480E002C080E090E0DF91CF910895D5
:1017A0002F923F924F925F926F927F928F929F9271
:1017B000AF92BF92CF92DF92EF92FF920F931F935F
:1017C000CF93DF93CDB7DEB7A1970FB6F894DEBF06
:1017D0000FBECDBF99A388A39E012F5F3F4F3A8FC5
:1017E000298F88E1D9011D928A95E9F71B8E86E041
:1017F0000E94A70B21E0892B09F420E0BB8D2B1759
:10180000B1F32B8F0E94AA096B017C01EB8D2E2E68
:10181000312C89859A85892B09F063C08D819E8141
:10182000AF81B885892B8A2B8B2B21F4CD82DE8268
:10183000EF82F8862D813E814F8158852C8F3D8F18
:101840004E8F5F8F26013701421A530A640A750AC8
:10185000C301B2010E94531420E030E04AE754E48F
:101860000E94A9134B015C0120E030E0A9010E9415
:10187000031520E030E040E05FE387FD05C0C501CF
:10188000B4010E94381304C0C501B4010E9437138B
:101890000E941B1431E02316310449F445284628E0
:1018A0004728C1F4CD82DE82EF82F8861AC0211467
:1018B000310481F46A3071056CF08C8D9D8DAE8D94
:1018C000BF8D89839A83AB83BC83A1E0B0E0BA87E4
:1018D000A98707C0E98DFA8D28E111922A95E9F7C9
:1018E00086CF89859A85892B09F481CF89819A8150
:1018F000AB81BC81A7019601281B390B4A0B5B0BFE
:10190000CA01B9010E94531420E030E04AE754E4D0
:101910000E94A9134B015C0120E030E0A9010E9464
:10192000031520E030E040E05FE387FD05C0C5011E
:10193000B4010E94381304C0C501B4010E943713DA
:101940000E941B148B859C85892B99F46A30710544
:101950000CF241E050E05C874B878D819E81AF8126
:10196000B885805F984DAF4FBF4F89839A83AB8313
:10197000BC8300E010E09E012F5F3F4FB701A6013E
:10198000C1010E94B708882309F431CF81EB92E0AE
:101990000E94F109CE0141960E94E50986E0FE0110
:1019A0007196A8A1B9A101900D928A95E1F781E005
:1019B000A1960FB6F894DEBF0FBECDBFDF91CF91D9
:1019C0001F910F91FF90EF90DF90CF90BF90AF905D
:1019D0009F908F907F906F905F904F903F902F904F
:1019E00008951F93CF93DF93282F30E0F901E2553C
:1019F000FF4F8491F901E656FF4FD491F901EA5760
:101A0000FF4FC491CC23C9F0162F81110E94810988
:101A1000EC2FF0E0EE0FFF1FEE58FF4FA591B491B1
:101A20008FB7F894111105C09C91ED2FE095E92333
:101A300002C0EC91ED2BEC938FBFDF91CF911F9102
:101A40000895CF92DF92EF92FF920F931F93CF935F
:101A5000DF936B017C0181EC92E00E94E50981E05B
:101A60008093B90083E08093B80061E082E10E9436
:101A7000F10C61E083E10E94F10C8091B9008E7F4E
:101A80008093B9008091B9008D7F8093B90088E47C
:101A90008093B80080ED92E00E94E50982E00E9408
:101AA0002007C82F81E00E942007D82F20E030E0D7
:101AB00040EA51E4C701B6010E9408150E942214B1
:101AC0008B011F7061707727672B19F06C2F60688E
:101AD00002C06C2F6F77D87F912F9695D92B82E01B
:101AE0000E9441076D2F81E00E944107B801769561
:101AF000679580E00E9441078DED92E00E94E50924
:101B000081E00E942007082F83E10E942007182F00
:101B100082E00E942007C82F602F6F7381E00E942F
:101B20004107612F606883E10E9441076C2F6F7B42
:101B300082E00E9441078FED92E00E94E50981E07A
:101B40000E942007682F686381E00E94410781EEB0
:101B500092E00E94E50982E00E942007682F616000
:101B600082E00E94410783EE92E00E94E50987E14E
:101B70000E942007682F606287E10E94410785EE7E
:101B800092E00E94E50984E00E94200764E384E07B
:101B90000E94410787EE92E0DF91CF911F910F9154
:101BA000FF90EF90DF90CF900C94E509CF93DF93F7
:101BB00090E0FC01E656FF4F2491FC01EA57FF4FED
:101BC0008491882361F190E0880F991FFC01E85906
:101BD000FF4FC591D491FC01EE58FF4FA591B491F0
:101BE000611109C09FB7F89488812095822388836A
:101BF000EC912E230BC0623061F49FB7F8943881CA
:101C0000822F809583238883EC912E2B2C939FBF6A
:101C100006C08FB7F894E8812E2B28838FBFDF9101
:101C2000CF9108958F929F92AF92BF92CF92DF9201
:101C3000EF92FF926B017C010E94AA094B015C01AB
:101C4000C114D104E104F104F1F00E94AA09DC01FD
:101C5000CB0188199909AA09BB09883E9340A105BF
:101C6000B10570F321E0C21AD108E108F10888EE4D
:101C7000880E83E0981EA11CB11CC114D104E1049C
:101C8000F10419F7DDCFFF90EF90DF90CF90BF9078
:101C9000AF909F908F900895AF92BF92CF92DF92B6
:101CA000FF920F931F93CF93DF93EC016C0186E0BB
:101CB000C80ED11CCC15DD0559F1F99000E010E0FB
:101CC000AF2C0F2C000CBB08B501002E02C075957F
:101CD00067950A94E2F76170772787E00E94F10C1C
:101CE00061E070E080E090E00E94120E0F5F1F4FF5
:101CF0000830110549F7F7FEDDCF60E087E00E946C
:101D0000F10C61E070E080E090E00E94120ED2CF12
:101D1000DF91CF911F910F91FF90DF90CF90BF90F7
:101D2000AF9008952FB7F8946091FB037091FC0376
:101D30008091FD039091FE032FBF0895CF92DF9213
:101D4000EF92FF920F931F93CF93DF936C017A0171
:101D50008B01C0E0D0E0CE15DF0589F0D8016D9190
:101D60008D01D601ED91FC910190F081E02DC6012D
:101D70000995892B11F47E0102C02196ECCFC70191
:101D8000DF91CF911F910F91FF90EF90DF90CF9057
:101D90000895FC01918D828D981761F0828DDF018D
:101DA000A80FB11D5D968C91928D9F5F9F73928F4E
:101DB00090E008958FEF9FEF0895FC01918D828D43
:101DC000981731F0828DE80FF11D858D90E0089510
:101DD0008FEF9FEF0895FC01918D228D892F90E068
:101DE000805C9F4F821B91098F739927089580E72C
:101DF00094E00E94EB0E21E0892B09F420E0822F71
:101E00000895FC01848DDF01A80FB11DA35ABF4FB7
:101E10002C91848D90E001968F739927848FA689E9
:101E2000B7892C93A089B1898C9180648C93938D10
:101E3000848D981306C00288F389E02D80818F7D00
:101E400080830895EF92FF920F931F93CF93DF93B8
:101E5000EC0181E0888F9B8D8C8D981305C0E889FB
:101E6000F989808185FD24C0F62E0B8D10E00F5F6F
:101E70001F4F0F731127E02E8C8DE8120CC00FB688
:101E800007FCFACFE889F989808185FFF5CFCE017B
:101E90000E94010FF1CF8B8DFE01E80FF11DE35A77
:101EA000FF4FF0820B8FEA89FB898081806207C037
:101EB000EE89FF896083E889F98980818064808365
:101EC00081E090E0DF91CF911F910F91FF90EF9013
:101ED0000895CF93DF93EC01888D8823C9F0EA89B8
:101EE000FB89808185FD05C0A889B9898C9186FD13
:101EF0000FC00FB607FCF5CF808185FFF2CFA88910
:101F0000B9898C9185FFEDCFCE010E94010FE7CFFB
:101F1000DF91CF91089580E090E0892B29F00E9415
:101F2000F70E81110C94000008950895CF93DF936C
:101F300000D000D0CDB7DEB7DC01ED91FC9106A456
:101F4000F7A5E02DBE016F5F7F4F09958C81811150
:101F500003C08FEE92E002C089EE92E00E94F10988
:101F60008A81811103C08FEE92E002C085EF92E07A
:101F70000E94F1098B81811103C085E093E002C0CA
:101F80008BEF92E00E94F1090E94E1090F900F90FF
:101F90000F900F90DF91CF9108950E9475151F92B9
:101FA0000F920FB60F9211242F933F938F939F930D
:101FB000AF93BF938091FB039091FC03A091FD032D
:101FC000B091FE033091510523E0230F2D3720F40B
:101FD0000196A11DB11D05C026E8230F0296A11D83
:101FE000B11D209351058093FB039093FC03A093B4
:101FF000FD03B093FE038091FF0390910004A09134
:102000000104B09102040196A11DB11D8093FF034C
:1020100090930004A0930104B0930204BF91AF9188
:102020009F918F913F912F910F900FBE0F901F9016
:1020300018951F920F920FB60F9211242F933F9372
:102040004F935F936F937F938F939F93AF93BF93C0
:10205000EF93FF9380E794E00E94010FFF91EF91CF
:10206000BF91AF919F918F917F916F915F914F91B0
:102070003F912F910F900FBE0F901F9018951F92B8
:102080000F920FB60F9211242F938F939F93EF937C
:10209000FF93E0918004F09181048081E0918604B7
:1020A000F091870482FD12C09081809189048F5F36
:1020B0008F7320918A04821751F0E0918904F0E037
:1020C000E059FB4F958F8093890401C08081FF9177
:1020D000EF919F918F912F910F900FBE0F901F90B6
:1020E0001895CF93DF93EB016031710520F480E305
:1020F0000E94340A04C06F3F710509F020F480E3A8
:102100000E94340A03C06115704118F480E30E94F4
:10211000340ABE0180E090E040E10E94F30980E2D1
:10212000DF91CF910C94340AE0E7F4E0138212823D
:1021300088EE93E0A0E0B0E084839583A683B78324
:1021400029E031E03183208325EC30E03587248796
:1021500024EC30E03787268720EC30E0318B208B71
:1021600021EC30E0338B228B22EC30E0358B248B5A
:1021700026EC30E0378B268B118E128E138E148E48
:10218000EDE0F5E01382128284839583A683B78302
:1021900089E191E091838083E9E1F5E085E1DF0168
:1021A0001D928A95E9F789E291E0918380838FE01F
:1021B000858B0895CF93DF93CDB7DEB72C970FB6FD
:1021C000F894DEBF0FBECDBF789484B5826084BD25
:1021D00084B5816084BD85B5826085BD85B581602B
:1021E00085BD80916E00816080936E0010928100A9
:1021F0008091810082608093810080918100816064
:102200008093810080918000816080938000809124
:10221000B10084608093B1008091B00081608093B0
:10222000B00080917A00846080937A0080917A0077
:10223000826080937A0080917A00816080937A0036
:1022400080917A00806880937A001092C100E091BA
:102250008004F091810482E08083E0917C04F0911D
:102260007D041082E0917E04F0917F0480E1808300
:1022700010928804E0918404F091850486E08083C4
:10228000E0918204F0918304808180618083E091F9
:102290008204F0918304808188608083E0918204CD
:1022A000F0918304808180688083E0918204F091C2
:1022B000830480818F7D80838FE093E00E94F10909
:1022C00062E082E00E94D60D62E083E00E94D60DBB
:1022D00082E00E94A70B01E010E0892B11F000E0E2
:1022E00010E083E00E94A70B892B19F080E090E0BA
:1022F00002C082E090E0800F911F90935005809380
:102300004F0521E0892B09F020E02093000187E2AE
:1023100093E00E94F10980914F05909150050E9431
:10232000790B8FE293E00E94F1098091000190E027
:102330000E94790B0E94E109809100018823F1F14C
:1023400062E084E00E94D60D62E085E00E94D60D36
:1023500089E195E00E949D064CEA56E261E070E05A
:1023600089E195E00E94BB0061E089E195E00E946F
:1023700022046AE089E195E00E9446048DE393E03F
:102380000E94E50989E195E00E947D06BC0180E09C
:1023900090E04AE00E94F3090E94E10960E070E0E9
:1023A0008CEC92E40E94210D81E593E00E94E50906
:1023B00042E060E070E08CEC92E43DC061E084E0DB
:1023C0000E94D60D60E084E00E94F10C89E195E066
:1023D0000E949D0648ED57E261E070E089E195E0DA
:1023E0000E94BB0061E089E195E00E9422046AE05E
:1023F00089E195E00E9446048DE393E00E94E5099F
:1024000089E195E00E947D06BC0180E090E04AE011
:102410000E94F3090E94E10960E070E086EC92E41A
:102420000E94210D8FE493E00E94E50942E060E004
:1024300070E086EC92E40E943F0A0E94E10960E0AD
:1024400086E00E94D60D61E087E00E94D60DC12C87
:10245000D12C76018E01095F1F4F86E0982E92E005
:10246000892ECE0101965C01F801292D11922A9541
:10247000E9F7809100018823A1F084E00E94A70B76
:10248000892BD9F50E94920EDC01CB018C199D0994
:10249000AE09BF0989389341A105B10508F057C0BD
:1024A0002CC0C8010E94D00B8823F1F2C8010E9401
:1024B000E5098F818130C1F683E693E00E94E5094A
:1024C000788421E07212D0CF61E084E00E94F10CA8
:1024D0001F8280914F05888779860E948B08C801EA
:1024E0000E944C0E68EB7BE080E090E00E94120EB0
:1024F00060E084E00E94F10CB7CF85E00E94A70B5A
:10250000892B09F0B1CF0E94920EDC01CB018C190E
:102510009D09AE09BF0989389341A105B10508F4A9
:10252000A3CF82EA93E00E94F1098F8281E088873D
:102530000E948B08C8010E944C0E0E94920E6B01F3
:102540007C014AE00E94F3090E94E1098DCF81E9F4
:1025500093E00E94F10981E08F8388870E948B08B5
:10256000C8010E944C0E0E94920E6B017C014AE051
:102570000E94F3090E94E109F501292D11922A9583
:10258000E9F7C5010E94D00B882309F46DCFC5017E
:102590000E94E509898190E020914F053091500516
:1025A0008217930709F060CF83E693E00E94E50964
:1025B0008A81813009F058CF8B81813009F054CF66
:1025C00086E793E00E94E5094FCFAA1BBB1B51E1B0
:1025D00007C0AA1FBB1FA617B70710F0A61BB70B93
:1025E000881F991F5A95A9F780959095BC01CD0138
:1025F0000895A1E21A2EAA1BBB1BFD010DC0AA1F44
:10260000BB1FEE1FFF1FA217B307E407F50720F05B
:10261000A21BB30BE40BF50B661F771F881F991FD6
:102620001A9469F760957095809590959B01AC011F
:10263000BD01CF0108950E942813B7FF0895821BA2
:10264000930B0895EE0FFF1F0590F491E02D099470
:10265000A29FB001B39FC001A39F700D811D1124E3
:10266000911DB29F700D811D1124911D0895505828
:10267000BB27AA270E944F130C94C9140E94BB14B5
:1026800038F00E94C21420F039F49F3F19F426F468
:102690000C94B8140EF4E095E7FB0C94B214E92FF7
:1026A0000E94DA1458F3BA17620773078407950774
:1026B00020F079F4A6F50C94FC140EF4E0950B2EA2
:1026C000BA2FA02D0B01B90190010C01CA01A00184
:1026D0001124FF27591B99F0593F50F4503E68F1DF
:1026E0001A16F040A22F232F342F4427585FF3CF20
:1026F000469537952795A795F0405395C9F77EF4F1
:102700001F16BA0B620B730B840BBAF09150A1F039
:10271000FF0FBB1F661F771F881FC2F70EC0BA0FBF
:10272000621F731F841F48F4879577956795B79547
:10273000F7959E3F08F0B0CF9395880F08F0992742
:10274000EE0F9795879508950E948E1408F481E006
:1027500008950E94BD130C94C9140E94C21458F02D
:102760000E94BB1440F029F45F3F29F00C94B2148E
:1027700051110C94FD140C94B8140E94DA1468F3EF
:102780009923B1F3552391F3951B550BBB27AA272A
:1027900062177307840738F09F5F5F4F220F331F64
:1027A000441FAA1FA9F335D00E2E3AF0E0E832D02C
:1027B00091505040E695001CCAF72BD0FE2F29D02F
:1027C000660F771F881FBB1F261737074807AB0701
:1027D000B0E809F0BB0B802DBF01FF2793585F4F76
:1027E0003AF09E3F510578F00C94B2140C94FD140D
:1027F0005F3FE4F3983ED4F3869577956795B79558
:10280000F7959F5FC9F7880F911D9695879597F962
:102810000895E1E0660F771F881FBB1F62177307DB
:102820008407BA0720F0621B730B840BBA0BEE1FF0
:1028300088F7E09508950E9422146894B1110C94D1
:10284000FD1408950E94E21488F09F5798F0B92F64
:102850009927B751B0F0E1F0660F771F881F991FD5
:102860001AF0BA95C9F714C0B13091F00E94FC1467
:10287000B1E008950C94FC14672F782F8827B85F77
:1028800039F0B93FCCF3869577956795B395D9F72D
:102890003EF490958095709561957F4F8F4F9F4F37
:1028A0000895E89409C097FB3EF490958095709543
:1028B00061957F4F8F4F9F4F9923A9F0F92F96E98C
:1028C000BB279395F695879577956795B795F11101
:1028D000F8CFFAF4BB0F11F460FF1BC06F5F7F4F9E
:1028E0008F4F9F4F16C0882311F096E911C07723B0
:1028F00021F09EE8872F762F05C0662371F096E8B9
:10290000862F70E060E02AF09A95660F771F881F87
:10291000DAF7880F9695879597F90895990F00082B
:10292000550FAA0BE0E8FEEF16161706E807F907A1
:10293000C0F012161306E407F50798F0621B730B3C
:10294000840B950B39F40A2661F0232B242B252BBD
:1029500021F408950A2609F4A140A6958FEF811D60
:10296000811D089597F99F6780E870E060E0089501
:102970009FEF80EC089500240A9416161706180697
:102980000906089500240A94121613061406050673
:102990000895092E0394000C11F4882352F0BB0F04
:1029A00040F4BF2B11F460FF04C06F5F7F4F8F4F67
:1029B0009F4F089557FD9058440F551F59F05F3FA2
:1029C00071F04795880F97FB991F61F09F3F79F051
:1029D00087950895121613061406551FF2CF4695D3
:1029E000F1DF08C0161617061806991FF1CF869555
:1029F0007105610508940895E894BB276627772739
:102A0000CB0197F908950E948E1408F48FEF089572
:102A10000E941B150C94C9140E94BB1438F00E942C
:102A2000C21420F0952311F00C94B2140C94B81435
:102A300011240C94FD140E94DA1470F3959FC1F3D5
:102A4000950F50E0551F629FF001729FBB27F00D5C
:102A5000B11D639FAA27F00DB11DAA1F649F6627B1
:102A6000B00DA11D661F829F2227B00DA11D621F00
:102A7000739FB00DA11D621F839FA00D611D221FBA
:102A8000749F3327A00D611D231F849F600D211D9E
:102A9000822F762F6A2F11249F5750409AF0F1F021
:102AA00088234AF0EE0FFF1FBB1F661F771F881F8A
:102AB00091505040A9F79E3F510580F00C94B214FC
:102AC0000C94FD145F3FE4F3983ED4F3869577951C
:102AD0006795B795F795E7959F5FC1F7FE2B880F30
:102AE000911D9695879597F9089581E090E0F89467
:102AF0000C948115FB01DC0101900D920020E1F79F
:062B00000895F894FFCFD8
:102B060001E803000000000000220F9E0EEB0EC934
:102B16000EDD0E690F00000000EB01BB01810156BE
:102B26000147014601000000009D068A044604088C
:102B3600011304F6000404F00037040201AD00A9F5
:102B460000A5001101B5009A037D06BB007A035962
:102B5600032204FC005006E202AA0493008F007AC6
:102B6600028C002702960F51052052445300202D57
:102B76002D2D002054554E454400202D2D2D2D2D54
:102B8600002053544552454F0020204D4F4E4F20B4
:102B9600002020525353493A20002020534E523AE7
:102BA6002000204D487A002D5F7361766552656777
:102BB600697374657200283078002C2030780073B1
:102BC60065744672657175656E6379002D736176FD
:102BD60065526567697374657273002829007465A8
:102BE600726D00424C4F434B5F4520666F756E64B5
:102BF6002E002053746572656F00204D6F6E6F2036
:102C060020004672657175656E63793D00205049F6
:102C16003D00205369673D003020202020312020D0
:102C26002020322020202033202020203420202065
:102C3600203520202020362020202037202020204C
:102C4600382020202039202020204120202020420A
:102C56002020202043202020204420202020452002
:102C6600202020460042617373426F6F7374200008
:102C76004D6F6E6F2000566F6C756D653D00696E09
:102C8600697400726164696F20666F756E642E00E8
:102C960073656E6420707265616D62756C65005354
:102CA6007472696E672072656365697665643A2039
:102CB60000646174612072656365697665643A20B3
:102CC60000535441525420494E49542069326300FE
:102CD600454E4420494E4954206932630031003242
:102CE60000330034003500360020424153530020A3
:102CF6002D2D2D2D00204D5554450020534F465463
:102D06004D55544500202D2D2D2D2D2D2D2D0053A7
:102D160074617274696E672072696E675F6C69743C
:102D2600655F76310D0A004D792049443A20004905
:102D360073204D61737465723A200D0A004658205F
:102D4600525820696E697469616C697A6564000D10
:102D56000A465820545820696E697469616C697A0C
:102D66006564004E6577204D6573736167652066FF
:102D76006F72206D650072696E67206163636570AE
:102D86007465642C20737461727420617564696F54
:102D960000494E5055543120707265737365640D49
:102DA6000A00494E5055543220707265737365643B
:042DB6000D0A000002
:00000001FF
